

Microchip MPLAB XC8 Assembler V2.31 build 20201012212115 
                                                                                               Tue Jan 25 15:31:30 2022

Microchip MPLAB XC8 C Compiler v2.31 (Free license) build 20201012212115 Og1 
     1                           	processor	16F18325
     2                           	pagewidth 120
     3                           	opt	flic
     4                           	psect	idataBANK1,global,class=CODE,delta=2,noexec
     5                           	psect	stringtext1,global,class=STRCODE,delta=2,noexec
     6                           	psect	stringtext2,global,class=STRCODE,delta=2,noexec
     7                           	psect	stringtext3,global,class=STRCODE,delta=2,noexec
     8                           	psect	stringtext4,global,class=STRCODE,delta=2,noexec
     9                           	psect	stringtext5,global,class=STRCODE,delta=2,noexec
    10                           	psect	stringtext6,global,class=STRCODE,delta=2,noexec
    11                           	psect	stringtext7,global,class=STRCODE,delta=2,noexec
    12                           	psect	nvCOMMON,global,class=COMMON,space=1,delta=1,noexec
    13                           	psect	nvBANK1,global,class=BANK1,space=1,delta=1,noexec
    14                           	psect	stringtext8,global,class=STRCODE,delta=2,noexec
    15                           	psect	stringtext9,global,class=STRCODE,delta=2,noexec
    16                           	psect	stringtext10,global,class=STRCODE,delta=2,noexec
    17                           	psect	stringtext11,global,class=STRCODE,delta=2,noexec
    18                           	psect	stringtext12,global,class=STRCODE,delta=2,noexec
    19                           	psect	stringtext13,global,class=STRCODE,delta=2,noexec
    20                           	psect	stringtext14,global,class=STRCODE,delta=2,noexec
    21                           	psect	stringtext15,global,class=STRCODE,delta=2,noexec
    22                           	psect	stringtext16,global,class=STRCODE,delta=2,noexec
    23                           	psect	stringtext17,global,class=STRCODE,delta=2,noexec
    24                           	psect	stringtext18,global,class=STRCODE,delta=2,noexec
    25                           	psect	stringtext19,global,class=STRCODE,delta=2,noexec
    26                           	psect	stringtext20,global,class=STRCODE,delta=2,noexec
    27                           	psect	cinit,global,class=CODE,merge=1,delta=2
    28                           	psect	bssCOMMON,global,class=COMMON,space=1,delta=1,noexec
    29                           	psect	bssBANK1,global,class=BANK1,space=1,delta=1,noexec
    30                           	psect	dataBANK1,global,class=BANK1,space=1,delta=1,noexec
    31                           	psect	bssBANK2,global,class=BANK2,space=1,delta=1,noexec
    32                           	psect	clrtext,global,class=CODE,delta=2
    33                           	psect	cstackBANK1,global,class=BANK1,space=1,delta=1,noexec
    34                           	psect	cstackCOMMON,global,class=COMMON,space=1,delta=1,noexec
    35                           	psect	cstackBANK0,global,class=BANK0,space=1,delta=1,noexec
    36                           	psect	maintext,global,class=CODE,merge=1,split=1,delta=2
    37                           	psect	text1,local,class=CODE,merge=1,delta=2
    38                           	psect	text2,local,class=CODE,merge=1,delta=2
    39                           	psect	text3,local,class=CODE,merge=1,delta=2
    40                           	psect	text4,local,class=CODE,merge=1,delta=2
    41                           	psect	text5,local,class=CODE,merge=1,delta=2
    42                           	psect	text6,local,class=CODE,merge=1,delta=2,group=2
    43                           	psect	text7,local,class=CODE,merge=1,delta=2
    44                           	psect	text8,local,class=CODE,merge=1,delta=2
    45                           	psect	text9,local,class=CODE,merge=1,delta=2
    46                           	psect	text10,local,class=CODE,merge=1,delta=2
    47                           	psect	text11,local,class=CODE,merge=1,delta=2
    48                           	psect	text12,local,class=CODE,merge=1,delta=2
    49                           	psect	text13,local,class=CODE,merge=1,delta=2
    50                           	psect	text14,local,class=CODE,merge=1,delta=2
    51                           	psect	text15,local,class=CODE,merge=1,delta=2
    52                           	psect	text16,local,class=CODE,merge=1,delta=2
    53                           	psect	text17,local,class=CODE,merge=1,delta=2
    54                           	psect	text18,local,class=CODE,merge=1,delta=2
    55                           	psect	text19,local,class=CODE,merge=1,delta=2
    56                           	psect	text20,local,class=CODE,merge=1,delta=2
    57                           	psect	text21,local,class=CODE,merge=1,delta=2
    58                           	psect	text22,local,class=CODE,merge=1,delta=2
    59                           	psect	text23,local,class=CODE,merge=1,delta=2
    60                           	psect	text24,local,class=CODE,merge=1,delta=2
    61                           	psect	text25,local,class=CODE,merge=1,delta=2
    62                           	psect	text26,local,class=CODE,merge=1,delta=2
    63                           	psect	text27,local,class=CODE,merge=1,delta=2
    64                           	psect	text28,local,class=CODE,merge=1,delta=2
    65                           	psect	text29,local,class=CODE,merge=1,delta=2,group=1
    66                           	psect	text30,local,class=CODE,merge=1,delta=2
    67                           	psect	text31,local,class=CODE,merge=1,delta=2
    68                           	psect	text32,local,class=CODE,merge=1,delta=2,group=1
    69                           	psect	text33,local,class=CODE,merge=1,delta=2,group=1
    70                           	psect	text34,local,class=CODE,merge=1,delta=2
    71                           	psect	text35,local,class=CODE,merge=1,delta=2
    72                           	psect	text36,local,class=CODE,merge=1,delta=2
    73                           	psect	text37,local,class=CODE,merge=1,delta=2
    74                           	psect	text38,local,class=CODE,merge=1,inline,delta=2
    75                           	psect	text39,local,class=CODE,merge=1,delta=2
    76                           	psect	text40,local,class=CODE,merge=1,delta=2
    77                           	psect	text41,local,class=CODE,merge=1,delta=2
    78                           	psect	text42,local,class=CODE,merge=1,inline,delta=2
    79                           	psect	text43,local,class=CODE,merge=1,inline,delta=2
    80                           	psect	text44,local,class=CODE,merge=1,delta=2
    81                           	psect	text45,local,class=CODE,merge=1,delta=2
    82                           	psect	text46,local,class=CODE,merge=1,delta=2
    83                           	psect	text47,local,class=CODE,merge=1,delta=2
    84                           	psect	text48,local,class=CODE,merge=1,delta=2
    85                           	psect	text49,local,class=CODE,merge=1,delta=2
    86                           	psect	text50,local,class=CODE,merge=1,delta=2
    87                           	psect	text51,local,class=CODE,merge=1,delta=2
    88                           	psect	text52,local,class=CODE,merge=1,delta=2
    89                           	psect	text53,local,class=CODE,merge=1,delta=2
    90                           	psect	text54,local,class=CODE,merge=1,delta=2
    91                           	psect	text55,local,class=CODE,merge=1,delta=2
    92                           	psect	text56,local,class=CODE,merge=1,delta=2
    93                           	psect	text57,local,class=CODE,merge=1,delta=2
    94                           	psect	text58,local,class=CODE,merge=1,delta=2
    95                           	psect	text59,local,class=CODE,merge=1,delta=2
    96                           	psect	text60,local,class=CODE,merge=1,inline,delta=2
    97                           	psect	text61,local,class=CODE,merge=1,inline,delta=2
    98                           	psect	text62,local,class=CODE,merge=1,inline,delta=2
    99                           	psect	text63,local,class=CODE,merge=1,inline,delta=2
   100                           	psect	text64,local,class=CODE,merge=1,inline,delta=2
   101                           	psect	text65,local,class=CODE,merge=1,inline,delta=2
   102                           	psect	text66,local,class=CODE,merge=1,inline,delta=2
   103                           	psect	text67,local,class=CODE,merge=1,delta=2
   104                           	psect	text68,local,class=CODE,merge=1,delta=2
   105                           	psect	text69,local,class=CODE,merge=1,delta=2
   106                           	psect	text70,local,class=CODE,merge=1,delta=2
   107                           	psect	text71,local,class=CODE,merge=1,delta=2
   108                           	psect	text72,local,class=CODE,merge=1,delta=2
   109                           	psect	text73,local,class=CODE,merge=1,delta=2
   110                           	psect	text74,local,class=CODE,merge=1,delta=2
   111                           	psect	text75,local,class=CODE,merge=1,delta=2
   112                           	psect	text76,local,class=CODE,merge=1,delta=2
   113                           	psect	text77,local,class=CODE,merge=1,delta=2
   114                           	psect	text78,local,class=CODE,merge=1,inline,delta=2
   115                           	psect	text79,local,class=CODE,merge=1,inline,delta=2
   116                           	psect	text80,local,class=CODE,merge=1,inline,delta=2
   117                           	psect	text81,local,class=CODE,merge=1,delta=2
   118                           	psect	text82,local,class=CODE,merge=1,inline,delta=2
   119                           	psect	text83,local,class=CODE,merge=1,inline,delta=2
   120                           	psect	text84,local,class=CODE,merge=1,inline,delta=2
   121                           	psect	text85,local,class=CODE,merge=1,delta=2
   122                           	psect	text86,local,class=CODE,merge=1,delta=2
   123                           	psect	text87,local,class=CODE,merge=1,delta=2
   124                           	psect	text88,local,class=CODE,merge=1,delta=2
   125                           	psect	text89,local,class=CODE,merge=1,delta=2
   126                           	psect	text90,local,class=CODE,merge=1,delta=2
   127                           	psect	text91,local,class=CODE,merge=1,delta=2
   128                           	psect	text92,local,class=CODE,merge=1,delta=2
   129                           	psect	text93,local,class=CODE,merge=1,delta=2
   130                           	psect	text94,local,class=CODE,merge=1,delta=2
   131                           	psect	intentry,global,class=CODE,delta=2
   132                           	psect	text96,local,class=CODE,merge=1,delta=2
   133                           	psect	text97,local,class=CODE,merge=1,delta=2
   134                           	psect	text98,local,class=CODE,merge=1,delta=2
   135                           	psect	text99,local,class=CODE,merge=1,delta=2
   136                           	psect	config,global,abs,ovrld,class=CONFIG,space=4,delta=2,noexec
   137                           	dabs	1,0x7E,2
   138  0000                     
   139                           ; Version 2.30
   140                           ; Generated 15/09/2020 GMT
   141                           ; 
   142                           ; Copyright © 2020, Microchip Technology Inc. and its subsidiaries ("Microchip")
   143                           ; All rights reserved.
   144                           ; 
   145                           ; This software is developed by Microchip Technology Inc. and its subsidiaries ("Microch
      +                          ip").
   146                           ; 
   147                           ; Redistribution and use in source and binary forms, with or without modification, are
   148                           ; permitted provided that the following conditions are met:
   149                           ; 
   150                           ;     1. Redistributions of source code must retain the above copyright notice, this lis
      +                          t of
   151                           ;        conditions and the following disclaimer.
   152                           ; 
   153                           ;     2. Redistributions in binary form must reproduce the above copyright notice, this 
      +                          list
   154                           ;        of conditions and the following disclaimer in the documentation and/or other
   155                           ;        materials provided with the distribution. Publication is not required when
   156                           ;        this file is used in an embedded application.
   157                           ; 
   158                           ;     3. Microchip's name may not be used to endorse or promote products derived from th
      +                          is
   159                           ;        software without specific prior written permission.
   160                           ; 
   161                           ; THIS SOFTWARE IS PROVIDED BY MICROCHIP "AS IS" AND ANY EXPRESS OR IMPLIED WARRANTIES,
   162                           ; INCLUDING, BUT NOT LIMITED TO, THE IMPLIED WARRANTIES OF MERCHANTABILITY AND FITNESS F
      +                          OR
   163                           ; PURPOSE ARE DISCLAIMED.  IN NO EVENT SHALL MICROCHIP BE LIABLE FOR ANY DIRECT, INDIREC
      +                          T,
   164                           ; INCIDENTAL, SPECIAL, EXEMPLARY, OR CONSEQUENTIAL DAMAGES (INCLUDING BUT NOT LIMITED TO
   165                           ; PROCUREMENT OF SUBSTITUTE GOODS OR SERVICES; LOSS OF USE, DATA OR PROFITS; OR BUSINESS
   166                           ; INTERRUPTION) HOWSOEVER CAUSED AND ON ANY THEORY OF LIABILITY, WHETHER IN CONTRACT, ST
      +                          RICT
   167                           ; LIABILITY, OR TORT (INCLUDING NEGLIGENCE OR OTHERWISE) ARISING IN ANY WAY OUT OF THE U
      +                          SE OF
   168                           ; THIS SOFTWARE, EVEN IF ADVISED OF THE POSSIBILITY OF SUCH DAMAGE.
   169                           ; 
   170                           ; 
   171                           ; Code-generator required, PIC16F18325 Definitions
   172                           ; 
   173                           ; SFR Addresses
   174  0000                     	;# 
   175  0001                     	;# 
   176  0002                     	;# 
   177  0003                     	;# 
   178  0004                     	;# 
   179  0005                     	;# 
   180  0006                     	;# 
   181  0007                     	;# 
   182  0008                     	;# 
   183  0009                     	;# 
   184  000A                     	;# 
   185  000B                     	;# 
   186  000C                     	;# 
   187  000E                     	;# 
   188  0010                     	;# 
   189  0011                     	;# 
   190  0012                     	;# 
   191  0013                     	;# 
   192  0014                     	;# 
   193  0015                     	;# 
   194  0015                     	;# 
   195  0016                     	;# 
   196  0016                     	;# 
   197  0017                     	;# 
   198  0018                     	;# 
   199  0019                     	;# 
   200  0019                     	;# 
   201  001A                     	;# 
   202  001B                     	;# 
   203  001C                     	;# 
   204  001D                     	;# 
   205  001E                     	;# 
   206  001F                     	;# 
   207  008C                     	;# 
   208  008E                     	;# 
   209  0090                     	;# 
   210  0091                     	;# 
   211  0092                     	;# 
   212  0093                     	;# 
   213  0094                     	;# 
   214  0097                     	;# 
   215  009B                     	;# 
   216  009B                     	;# 
   217  009C                     	;# 
   218  009D                     	;# 
   219  009E                     	;# 
   220  009F                     	;# 
   221  010C                     	;# 
   222  010E                     	;# 
   223  0111                     	;# 
   224  0112                     	;# 
   225  0113                     	;# 
   226  0114                     	;# 
   227  0115                     	;# 
   228  0116                     	;# 
   229  0117                     	;# 
   230  0118                     	;# 
   231  0119                     	;# 
   232  018C                     	;# 
   233  018E                     	;# 
   234  0197                     	;# 
   235  0199                     	;# 
   236  0199                     	;# 
   237  0199                     	;# 
   238  019A                     	;# 
   239  019A                     	;# 
   240  019A                     	;# 
   241  019B                     	;# 
   242  019B                     	;# 
   243  019B                     	;# 
   244  019B                     	;# 
   245  019B                     	;# 
   246  019C                     	;# 
   247  019C                     	;# 
   248  019C                     	;# 
   249  019D                     	;# 
   250  019D                     	;# 
   251  019D                     	;# 
   252  019E                     	;# 
   253  019E                     	;# 
   254  019E                     	;# 
   255  019F                     	;# 
   256  019F                     	;# 
   257  019F                     	;# 
   258  019F                     	;# 
   259  019F                     	;# 
   260  020C                     	;# 
   261  020E                     	;# 
   262  0211                     	;# 
   263  0211                     	;# 
   264  0212                     	;# 
   265  0212                     	;# 
   266  0213                     	;# 
   267  0213                     	;# 
   268  0214                     	;# 
   269  0214                     	;# 
   270  0215                     	;# 
   271  0215                     	;# 
   272  0215                     	;# 
   273  0215                     	;# 
   274  0216                     	;# 
   275  0216                     	;# 
   276  0217                     	;# 
   277  0217                     	;# 
   278  0219                     	;# 
   279  021A                     	;# 
   280  021B                     	;# 
   281  021C                     	;# 
   282  021D                     	;# 
   283  021D                     	;# 
   284  021E                     	;# 
   285  021F                     	;# 
   286  028C                     	;# 
   287  028E                     	;# 
   288  0291                     	;# 
   289  0291                     	;# 
   290  0292                     	;# 
   291  0293                     	;# 
   292  0294                     	;# 
   293  0295                     	;# 
   294  0295                     	;# 
   295  0296                     	;# 
   296  0297                     	;# 
   297  0298                     	;# 
   298  029F                     	;# 
   299  030C                     	;# 
   300  030E                     	;# 
   301  0311                     	;# 
   302  0311                     	;# 
   303  0312                     	;# 
   304  0313                     	;# 
   305  0314                     	;# 
   306  0315                     	;# 
   307  0315                     	;# 
   308  0316                     	;# 
   309  0317                     	;# 
   310  0318                     	;# 
   311  038C                     	;# 
   312  038E                     	;# 
   313  0391                     	;# 
   314  0392                     	;# 
   315  0393                     	;# 
   316  0397                     	;# 
   317  0398                     	;# 
   318  0399                     	;# 
   319  039A                     	;# 
   320  039C                     	;# 
   321  039D                     	;# 
   322  039E                     	;# 
   323  039F                     	;# 
   324  0411                     	;# 
   325  0411                     	;# 
   326  0412                     	;# 
   327  0413                     	;# 
   328  0414                     	;# 
   329  0415                     	;# 
   330  0416                     	;# 
   331  0417                     	;# 
   332  0418                     	;# 
   333  0418                     	;# 
   334  0419                     	;# 
   335  041A                     	;# 
   336  041B                     	;# 
   337  041C                     	;# 
   338  041D                     	;# 
   339  041E                     	;# 
   340  041F                     	;# 
   341  0498                     	;# 
   342  0498                     	;# 
   343  0499                     	;# 
   344  049A                     	;# 
   345  049B                     	;# 
   346  049B                     	;# 
   347  049C                     	;# 
   348  049D                     	;# 
   349  049E                     	;# 
   350  049F                     	;# 
   351  0617                     	;# 
   352  0618                     	;# 
   353  0619                     	;# 
   354  0619                     	;# 
   355  061A                     	;# 
   356  061B                     	;# 
   357  061C                     	;# 
   358  061C                     	;# 
   359  061F                     	;# 
   360  0691                     	;# 
   361  0692                     	;# 
   362  0693                     	;# 
   363  0694                     	;# 
   364  0695                     	;# 
   365  0696                     	;# 
   366  0697                     	;# 
   367  0698                     	;# 
   368  0699                     	;# 
   369  0711                     	;# 
   370  0712                     	;# 
   371  0713                     	;# 
   372  0714                     	;# 
   373  0715                     	;# 
   374  0716                     	;# 
   375  0717                     	;# 
   376  0718                     	;# 
   377  0719                     	;# 
   378  0891                     	;# 
   379  0891                     	;# 
   380  0891                     	;# 
   381  0891                     	;# 
   382  0891                     	;# 
   383  0891                     	;# 
   384  0892                     	;# 
   385  0892                     	;# 
   386  0892                     	;# 
   387  0893                     	;# 
   388  0893                     	;# 
   389  0893                     	;# 
   390  0893                     	;# 
   391  0893                     	;# 
   392  0893                     	;# 
   393  0894                     	;# 
   394  0894                     	;# 
   395  0894                     	;# 
   396  0895                     	;# 
   397  0895                     	;# 
   398  0895                     	;# 
   399  0896                     	;# 
   400  0896                     	;# 
   401  0896                     	;# 
   402  089B                     	;# 
   403  0911                     	;# 
   404  0912                     	;# 
   405  0913                     	;# 
   406  0914                     	;# 
   407  0915                     	;# 
   408  0916                     	;# 
   409  0918                     	;# 
   410  0919                     	;# 
   411  091A                     	;# 
   412  091B                     	;# 
   413  091C                     	;# 
   414  091D                     	;# 
   415  091E                     	;# 
   416  091F                     	;# 
   417  0E0F                     	;# 
   418  0E10                     	;# 
   419  0E11                     	;# 
   420  0E12                     	;# 
   421  0E13                     	;# 
   422  0E14                     	;# 
   423  0E15                     	;# 
   424  0E16                     	;# 
   425  0E17                     	;# 
   426  0E18                     	;# 
   427  0E19                     	;# 
   428  0E1A                     	;# 
   429  0E1B                     	;# 
   430  0E1C                     	;# 
   431  0E1D                     	;# 
   432  0E1E                     	;# 
   433  0E1F                     	;# 
   434  0E20                     	;# 
   435  0E21                     	;# 
   436  0E22                     	;# 
   437  0E24                     	;# 
   438  0E25                     	;# 
   439  0E28                     	;# 
   440  0E29                     	;# 
   441  0E2A                     	;# 
   442  0E2B                     	;# 
   443  0E2C                     	;# 
   444  0E2D                     	;# 
   445  0E2E                     	;# 
   446  0E2F                     	;# 
   447  0E90                     	;# 
   448  0E91                     	;# 
   449  0E92                     	;# 
   450  0E94                     	;# 
   451  0E95                     	;# 
   452  0EA0                     	;# 
   453  0EA1                     	;# 
   454  0EA2                     	;# 
   455  0EA3                     	;# 
   456  0EA4                     	;# 
   457  0EA5                     	;# 
   458  0F0F                     	;# 
   459  0F10                     	;# 
   460  0F11                     	;# 
   461  0F12                     	;# 
   462  0F13                     	;# 
   463  0F14                     	;# 
   464  0F15                     	;# 
   465  0F16                     	;# 
   466  0F17                     	;# 
   467  0F18                     	;# 
   468  0F19                     	;# 
   469  0F1A                     	;# 
   470  0F1B                     	;# 
   471  0F1C                     	;# 
   472  0F1D                     	;# 
   473  0F1E                     	;# 
   474  0F1F                     	;# 
   475  0F20                     	;# 
   476  0F21                     	;# 
   477  0F22                     	;# 
   478  0F23                     	;# 
   479  0F24                     	;# 
   480  0F25                     	;# 
   481  0F26                     	;# 
   482  0F27                     	;# 
   483  0F28                     	;# 
   484  0F29                     	;# 
   485  0F2A                     	;# 
   486  0F2B                     	;# 
   487  0F2C                     	;# 
   488  0F2D                     	;# 
   489  0F2E                     	;# 
   490  0F2F                     	;# 
   491  0F30                     	;# 
   492  0F31                     	;# 
   493  0F32                     	;# 
   494  0F33                     	;# 
   495  0F34                     	;# 
   496  0F35                     	;# 
   497  0F36                     	;# 
   498  0F37                     	;# 
   499  0FE4                     	;# 
   500  0FE5                     	;# 
   501  0FE6                     	;# 
   502  0FE7                     	;# 
   503  0FE8                     	;# 
   504  0FE9                     	;# 
   505  0FEA                     	;# 
   506  0FEB                     	;# 
   507  0FED                     	;# 
   508  0FEE                     	;# 
   509  0FEF                     	;# 
   510  0000                     	;# 
   511  0001                     	;# 
   512  0002                     	;# 
   513  0003                     	;# 
   514  0004                     	;# 
   515  0005                     	;# 
   516  0006                     	;# 
   517  0007                     	;# 
   518  0008                     	;# 
   519  0009                     	;# 
   520  000A                     	;# 
   521  000B                     	;# 
   522  000C                     	;# 
   523  000E                     	;# 
   524  0010                     	;# 
   525  0011                     	;# 
   526  0012                     	;# 
   527  0013                     	;# 
   528  0014                     	;# 
   529  0015                     	;# 
   530  0015                     	;# 
   531  0016                     	;# 
   532  0016                     	;# 
   533  0017                     	;# 
   534  0018                     	;# 
   535  0019                     	;# 
   536  0019                     	;# 
   537  001A                     	;# 
   538  001B                     	;# 
   539  001C                     	;# 
   540  001D                     	;# 
   541  001E                     	;# 
   542  001F                     	;# 
   543  008C                     	;# 
   544  008E                     	;# 
   545  0090                     	;# 
   546  0091                     	;# 
   547  0092                     	;# 
   548  0093                     	;# 
   549  0094                     	;# 
   550  0097                     	;# 
   551  009B                     	;# 
   552  009B                     	;# 
   553  009C                     	;# 
   554  009D                     	;# 
   555  009E                     	;# 
   556  009F                     	;# 
   557  010C                     	;# 
   558  010E                     	;# 
   559  0111                     	;# 
   560  0112                     	;# 
   561  0113                     	;# 
   562  0114                     	;# 
   563  0115                     	;# 
   564  0116                     	;# 
   565  0117                     	;# 
   566  0118                     	;# 
   567  0119                     	;# 
   568  018C                     	;# 
   569  018E                     	;# 
   570  0197                     	;# 
   571  0199                     	;# 
   572  0199                     	;# 
   573  0199                     	;# 
   574  019A                     	;# 
   575  019A                     	;# 
   576  019A                     	;# 
   577  019B                     	;# 
   578  019B                     	;# 
   579  019B                     	;# 
   580  019B                     	;# 
   581  019B                     	;# 
   582  019C                     	;# 
   583  019C                     	;# 
   584  019C                     	;# 
   585  019D                     	;# 
   586  019D                     	;# 
   587  019D                     	;# 
   588  019E                     	;# 
   589  019E                     	;# 
   590  019E                     	;# 
   591  019F                     	;# 
   592  019F                     	;# 
   593  019F                     	;# 
   594  019F                     	;# 
   595  019F                     	;# 
   596  020C                     	;# 
   597  020E                     	;# 
   598  0211                     	;# 
   599  0211                     	;# 
   600  0212                     	;# 
   601  0212                     	;# 
   602  0213                     	;# 
   603  0213                     	;# 
   604  0214                     	;# 
   605  0214                     	;# 
   606  0215                     	;# 
   607  0215                     	;# 
   608  0215                     	;# 
   609  0215                     	;# 
   610  0216                     	;# 
   611  0216                     	;# 
   612  0217                     	;# 
   613  0217                     	;# 
   614  0219                     	;# 
   615  021A                     	;# 
   616  021B                     	;# 
   617  021C                     	;# 
   618  021D                     	;# 
   619  021D                     	;# 
   620  021E                     	;# 
   621  021F                     	;# 
   622  028C                     	;# 
   623  028E                     	;# 
   624  0291                     	;# 
   625  0291                     	;# 
   626  0292                     	;# 
   627  0293                     	;# 
   628  0294                     	;# 
   629  0295                     	;# 
   630  0295                     	;# 
   631  0296                     	;# 
   632  0297                     	;# 
   633  0298                     	;# 
   634  029F                     	;# 
   635  030C                     	;# 
   636  030E                     	;# 
   637  0311                     	;# 
   638  0311                     	;# 
   639  0312                     	;# 
   640  0313                     	;# 
   641  0314                     	;# 
   642  0315                     	;# 
   643  0315                     	;# 
   644  0316                     	;# 
   645  0317                     	;# 
   646  0318                     	;# 
   647  038C                     	;# 
   648  038E                     	;# 
   649  0391                     	;# 
   650  0392                     	;# 
   651  0393                     	;# 
   652  0397                     	;# 
   653  0398                     	;# 
   654  0399                     	;# 
   655  039A                     	;# 
   656  039C                     	;# 
   657  039D                     	;# 
   658  039E                     	;# 
   659  039F                     	;# 
   660  0411                     	;# 
   661  0411                     	;# 
   662  0412                     	;# 
   663  0413                     	;# 
   664  0414                     	;# 
   665  0415                     	;# 
   666  0416                     	;# 
   667  0417                     	;# 
   668  0418                     	;# 
   669  0418                     	;# 
   670  0419                     	;# 
   671  041A                     	;# 
   672  041B                     	;# 
   673  041C                     	;# 
   674  041D                     	;# 
   675  041E                     	;# 
   676  041F                     	;# 
   677  0498                     	;# 
   678  0498                     	;# 
   679  0499                     	;# 
   680  049A                     	;# 
   681  049B                     	;# 
   682  049B                     	;# 
   683  049C                     	;# 
   684  049D                     	;# 
   685  049E                     	;# 
   686  049F                     	;# 
   687  0617                     	;# 
   688  0618                     	;# 
   689  0619                     	;# 
   690  0619                     	;# 
   691  061A                     	;# 
   692  061B                     	;# 
   693  061C                     	;# 
   694  061C                     	;# 
   695  061F                     	;# 
   696  0691                     	;# 
   697  0692                     	;# 
   698  0693                     	;# 
   699  0694                     	;# 
   700  0695                     	;# 
   701  0696                     	;# 
   702  0697                     	;# 
   703  0698                     	;# 
   704  0699                     	;# 
   705  0711                     	;# 
   706  0712                     	;# 
   707  0713                     	;# 
   708  0714                     	;# 
   709  0715                     	;# 
   710  0716                     	;# 
   711  0717                     	;# 
   712  0718                     	;# 
   713  0719                     	;# 
   714  0891                     	;# 
   715  0891                     	;# 
   716  0891                     	;# 
   717  0891                     	;# 
   718  0891                     	;# 
   719  0891                     	;# 
   720  0892                     	;# 
   721  0892                     	;# 
   722  0892                     	;# 
   723  0893                     	;# 
   724  0893                     	;# 
   725  0893                     	;# 
   726  0893                     	;# 
   727  0893                     	;# 
   728  0893                     	;# 
   729  0894                     	;# 
   730  0894                     	;# 
   731  0894                     	;# 
   732  0895                     	;# 
   733  0895                     	;# 
   734  0895                     	;# 
   735  0896                     	;# 
   736  0896                     	;# 
   737  0896                     	;# 
   738  089B                     	;# 
   739  0911                     	;# 
   740  0912                     	;# 
   741  0913                     	;# 
   742  0914                     	;# 
   743  0915                     	;# 
   744  0916                     	;# 
   745  0918                     	;# 
   746  0919                     	;# 
   747  091A                     	;# 
   748  091B                     	;# 
   749  091C                     	;# 
   750  091D                     	;# 
   751  091E                     	;# 
   752  091F                     	;# 
   753  0E0F                     	;# 
   754  0E10                     	;# 
   755  0E11                     	;# 
   756  0E12                     	;# 
   757  0E13                     	;# 
   758  0E14                     	;# 
   759  0E15                     	;# 
   760  0E16                     	;# 
   761  0E17                     	;# 
   762  0E18                     	;# 
   763  0E19                     	;# 
   764  0E1A                     	;# 
   765  0E1B                     	;# 
   766  0E1C                     	;# 
   767  0E1D                     	;# 
   768  0E1E                     	;# 
   769  0E1F                     	;# 
   770  0E20                     	;# 
   771  0E21                     	;# 
   772  0E22                     	;# 
   773  0E24                     	;# 
   774  0E25                     	;# 
   775  0E28                     	;# 
   776  0E29                     	;# 
   777  0E2A                     	;# 
   778  0E2B                     	;# 
   779  0E2C                     	;# 
   780  0E2D                     	;# 
   781  0E2E                     	;# 
   782  0E2F                     	;# 
   783  0E90                     	;# 
   784  0E91                     	;# 
   785  0E92                     	;# 
   786  0E94                     	;# 
   787  0E95                     	;# 
   788  0EA0                     	;# 
   789  0EA1                     	;# 
   790  0EA2                     	;# 
   791  0EA3                     	;# 
   792  0EA4                     	;# 
   793  0EA5                     	;# 
   794  0F0F                     	;# 
   795  0F10                     	;# 
   796  0F11                     	;# 
   797  0F12                     	;# 
   798  0F13                     	;# 
   799  0F14                     	;# 
   800  0F15                     	;# 
   801  0F16                     	;# 
   802  0F17                     	;# 
   803  0F18                     	;# 
   804  0F19                     	;# 
   805  0F1A                     	;# 
   806  0F1B                     	;# 
   807  0F1C                     	;# 
   808  0F1D                     	;# 
   809  0F1E                     	;# 
   810  0F1F                     	;# 
   811  0F20                     	;# 
   812  0F21                     	;# 
   813  0F22                     	;# 
   814  0F23                     	;# 
   815  0F24                     	;# 
   816  0F25                     	;# 
   817  0F26                     	;# 
   818  0F27                     	;# 
   819  0F28                     	;# 
   820  0F29                     	;# 
   821  0F2A                     	;# 
   822  0F2B                     	;# 
   823  0F2C                     	;# 
   824  0F2D                     	;# 
   825  0F2E                     	;# 
   826  0F2F                     	;# 
   827  0F30                     	;# 
   828  0F31                     	;# 
   829  0F32                     	;# 
   830  0F33                     	;# 
   831  0F34                     	;# 
   832  0F35                     	;# 
   833  0F36                     	;# 
   834  0F37                     	;# 
   835  0FE4                     	;# 
   836  0FE5                     	;# 
   837  0FE6                     	;# 
   838  0FE7                     	;# 
   839  0FE8                     	;# 
   840  0FE9                     	;# 
   841  0FEA                     	;# 
   842  0FEB                     	;# 
   843  0FED                     	;# 
   844  0FEE                     	;# 
   845  0FEF                     	;# 
   846  0000                     	;# 
   847  0001                     	;# 
   848  0002                     	;# 
   849  0003                     	;# 
   850  0004                     	;# 
   851  0005                     	;# 
   852  0006                     	;# 
   853  0007                     	;# 
   854  0008                     	;# 
   855  0009                     	;# 
   856  000A                     	;# 
   857  000B                     	;# 
   858  000C                     	;# 
   859  000E                     	;# 
   860  0010                     	;# 
   861  0011                     	;# 
   862  0012                     	;# 
   863  0013                     	;# 
   864  0014                     	;# 
   865  0015                     	;# 
   866  0015                     	;# 
   867  0016                     	;# 
   868  0016                     	;# 
   869  0017                     	;# 
   870  0018                     	;# 
   871  0019                     	;# 
   872  0019                     	;# 
   873  001A                     	;# 
   874  001B                     	;# 
   875  001C                     	;# 
   876  001D                     	;# 
   877  001E                     	;# 
   878  001F                     	;# 
   879  008C                     	;# 
   880  008E                     	;# 
   881  0090                     	;# 
   882  0091                     	;# 
   883  0092                     	;# 
   884  0093                     	;# 
   885  0094                     	;# 
   886  0097                     	;# 
   887  009B                     	;# 
   888  009B                     	;# 
   889  009C                     	;# 
   890  009D                     	;# 
   891  009E                     	;# 
   892  009F                     	;# 
   893  010C                     	;# 
   894  010E                     	;# 
   895  0111                     	;# 
   896  0112                     	;# 
   897  0113                     	;# 
   898  0114                     	;# 
   899  0115                     	;# 
   900  0116                     	;# 
   901  0117                     	;# 
   902  0118                     	;# 
   903  0119                     	;# 
   904  018C                     	;# 
   905  018E                     	;# 
   906  0197                     	;# 
   907  0199                     	;# 
   908  0199                     	;# 
   909  0199                     	;# 
   910  019A                     	;# 
   911  019A                     	;# 
   912  019A                     	;# 
   913  019B                     	;# 
   914  019B                     	;# 
   915  019B                     	;# 
   916  019B                     	;# 
   917  019B                     	;# 
   918  019C                     	;# 
   919  019C                     	;# 
   920  019C                     	;# 
   921  019D                     	;# 
   922  019D                     	;# 
   923  019D                     	;# 
   924  019E                     	;# 
   925  019E                     	;# 
   926  019E                     	;# 
   927  019F                     	;# 
   928  019F                     	;# 
   929  019F                     	;# 
   930  019F                     	;# 
   931  019F                     	;# 
   932  020C                     	;# 
   933  020E                     	;# 
   934  0211                     	;# 
   935  0211                     	;# 
   936  0212                     	;# 
   937  0212                     	;# 
   938  0213                     	;# 
   939  0213                     	;# 
   940  0214                     	;# 
   941  0214                     	;# 
   942  0215                     	;# 
   943  0215                     	;# 
   944  0215                     	;# 
   945  0215                     	;# 
   946  0216                     	;# 
   947  0216                     	;# 
   948  0217                     	;# 
   949  0217                     	;# 
   950  0219                     	;# 
   951  021A                     	;# 
   952  021B                     	;# 
   953  021C                     	;# 
   954  021D                     	;# 
   955  021D                     	;# 
   956  021E                     	;# 
   957  021F                     	;# 
   958  028C                     	;# 
   959  028E                     	;# 
   960  0291                     	;# 
   961  0291                     	;# 
   962  0292                     	;# 
   963  0293                     	;# 
   964  0294                     	;# 
   965  0295                     	;# 
   966  0295                     	;# 
   967  0296                     	;# 
   968  0297                     	;# 
   969  0298                     	;# 
   970  029F                     	;# 
   971  030C                     	;# 
   972  030E                     	;# 
   973  0311                     	;# 
   974  0311                     	;# 
   975  0312                     	;# 
   976  0313                     	;# 
   977  0314                     	;# 
   978  0315                     	;# 
   979  0315                     	;# 
   980  0316                     	;# 
   981  0317                     	;# 
   982  0318                     	;# 
   983  038C                     	;# 
   984  038E                     	;# 
   985  0391                     	;# 
   986  0392                     	;# 
   987  0393                     	;# 
   988  0397                     	;# 
   989  0398                     	;# 
   990  0399                     	;# 
   991  039A                     	;# 
   992  039C                     	;# 
   993  039D                     	;# 
   994  039E                     	;# 
   995  039F                     	;# 
   996  0411                     	;# 
   997  0411                     	;# 
   998  0412                     	;# 
   999  0413                     	;# 
  1000  0414                     	;# 
  1001  0415                     	;# 
  1002  0416                     	;# 
  1003  0417                     	;# 
  1004  0418                     	;# 
  1005  0418                     	;# 
  1006  0419                     	;# 
  1007  041A                     	;# 
  1008  041B                     	;# 
  1009  041C                     	;# 
  1010  041D                     	;# 
  1011  041E                     	;# 
  1012  041F                     	;# 
  1013  0498                     	;# 
  1014  0498                     	;# 
  1015  0499                     	;# 
  1016  049A                     	;# 
  1017  049B                     	;# 
  1018  049B                     	;# 
  1019  049C                     	;# 
  1020  049D                     	;# 
  1021  049E                     	;# 
  1022  049F                     	;# 
  1023  0617                     	;# 
  1024  0618                     	;# 
  1025  0619                     	;# 
  1026  0619                     	;# 
  1027  061A                     	;# 
  1028  061B                     	;# 
  1029  061C                     	;# 
  1030  061C                     	;# 
  1031  061F                     	;# 
  1032  0691                     	;# 
  1033  0692                     	;# 
  1034  0693                     	;# 
  1035  0694                     	;# 
  1036  0695                     	;# 
  1037  0696                     	;# 
  1038  0697                     	;# 
  1039  0698                     	;# 
  1040  0699                     	;# 
  1041  0711                     	;# 
  1042  0712                     	;# 
  1043  0713                     	;# 
  1044  0714                     	;# 
  1045  0715                     	;# 
  1046  0716                     	;# 
  1047  0717                     	;# 
  1048  0718                     	;# 
  1049  0719                     	;# 
  1050  0891                     	;# 
  1051  0891                     	;# 
  1052  0891                     	;# 
  1053  0891                     	;# 
  1054  0891                     	;# 
  1055  0891                     	;# 
  1056  0892                     	;# 
  1057  0892                     	;# 
  1058  0892                     	;# 
  1059  0893                     	;# 
  1060  0893                     	;# 
  1061  0893                     	;# 
  1062  0893                     	;# 
  1063  0893                     	;# 
  1064  0893                     	;# 
  1065  0894                     	;# 
  1066  0894                     	;# 
  1067  0894                     	;# 
  1068  0895                     	;# 
  1069  0895                     	;# 
  1070  0895                     	;# 
  1071  0896                     	;# 
  1072  0896                     	;# 
  1073  0896                     	;# 
  1074  089B                     	;# 
  1075  0911                     	;# 
  1076  0912                     	;# 
  1077  0913                     	;# 
  1078  0914                     	;# 
  1079  0915                     	;# 
  1080  0916                     	;# 
  1081  0918                     	;# 
  1082  0919                     	;# 
  1083  091A                     	;# 
  1084  091B                     	;# 
  1085  091C                     	;# 
  1086  091D                     	;# 
  1087  091E                     	;# 
  1088  091F                     	;# 
  1089  0E0F                     	;# 
  1090  0E10                     	;# 
  1091  0E11                     	;# 
  1092  0E12                     	;# 
  1093  0E13                     	;# 
  1094  0E14                     	;# 
  1095  0E15                     	;# 
  1096  0E16                     	;# 
  1097  0E17                     	;# 
  1098  0E18                     	;# 
  1099  0E19                     	;# 
  1100  0E1A                     	;# 
  1101  0E1B                     	;# 
  1102  0E1C                     	;# 
  1103  0E1D                     	;# 
  1104  0E1E                     	;# 
  1105  0E1F                     	;# 
  1106  0E20                     	;# 
  1107  0E21                     	;# 
  1108  0E22                     	;# 
  1109  0E24                     	;# 
  1110  0E25                     	;# 
  1111  0E28                     	;# 
  1112  0E29                     	;# 
  1113  0E2A                     	;# 
  1114  0E2B                     	;# 
  1115  0E2C                     	;# 
  1116  0E2D                     	;# 
  1117  0E2E                     	;# 
  1118  0E2F                     	;# 
  1119  0E90                     	;# 
  1120  0E91                     	;# 
  1121  0E92                     	;# 
  1122  0E94                     	;# 
  1123  0E95                     	;# 
  1124  0EA0                     	;# 
  1125  0EA1                     	;# 
  1126  0EA2                     	;# 
  1127  0EA3                     	;# 
  1128  0EA4                     	;# 
  1129  0EA5                     	;# 
  1130  0F0F                     	;# 
  1131  0F10                     	;# 
  1132  0F11                     	;# 
  1133  0F12                     	;# 
  1134  0F13                     	;# 
  1135  0F14                     	;# 
  1136  0F15                     	;# 
  1137  0F16                     	;# 
  1138  0F17                     	;# 
  1139  0F18                     	;# 
  1140  0F19                     	;# 
  1141  0F1A                     	;# 
  1142  0F1B                     	;# 
  1143  0F1C                     	;# 
  1144  0F1D                     	;# 
  1145  0F1E                     	;# 
  1146  0F1F                     	;# 
  1147  0F20                     	;# 
  1148  0F21                     	;# 
  1149  0F22                     	;# 
  1150  0F23                     	;# 
  1151  0F24                     	;# 
  1152  0F25                     	;# 
  1153  0F26                     	;# 
  1154  0F27                     	;# 
  1155  0F28                     	;# 
  1156  0F29                     	;# 
  1157  0F2A                     	;# 
  1158  0F2B                     	;# 
  1159  0F2C                     	;# 
  1160  0F2D                     	;# 
  1161  0F2E                     	;# 
  1162  0F2F                     	;# 
  1163  0F30                     	;# 
  1164  0F31                     	;# 
  1165  0F32                     	;# 
  1166  0F33                     	;# 
  1167  0F34                     	;# 
  1168  0F35                     	;# 
  1169  0F36                     	;# 
  1170  0F37                     	;# 
  1171  0FE4                     	;# 
  1172  0FE5                     	;# 
  1173  0FE6                     	;# 
  1174  0FE7                     	;# 
  1175  0FE8                     	;# 
  1176  0FE9                     	;# 
  1177  0FEA                     	;# 
  1178  0FEB                     	;# 
  1179  0FED                     	;# 
  1180  0FEE                     	;# 
  1181  0FEF                     	;# 
  1182  0000                     	;# 
  1183  0001                     	;# 
  1184  0002                     	;# 
  1185  0003                     	;# 
  1186  0004                     	;# 
  1187  0005                     	;# 
  1188  0006                     	;# 
  1189  0007                     	;# 
  1190  0008                     	;# 
  1191  0009                     	;# 
  1192  000A                     	;# 
  1193  000B                     	;# 
  1194  000C                     	;# 
  1195  000E                     	;# 
  1196  0010                     	;# 
  1197  0011                     	;# 
  1198  0012                     	;# 
  1199  0013                     	;# 
  1200  0014                     	;# 
  1201  0015                     	;# 
  1202  0015                     	;# 
  1203  0016                     	;# 
  1204  0016                     	;# 
  1205  0017                     	;# 
  1206  0018                     	;# 
  1207  0019                     	;# 
  1208  0019                     	;# 
  1209  001A                     	;# 
  1210  001B                     	;# 
  1211  001C                     	;# 
  1212  001D                     	;# 
  1213  001E                     	;# 
  1214  001F                     	;# 
  1215  008C                     	;# 
  1216  008E                     	;# 
  1217  0090                     	;# 
  1218  0091                     	;# 
  1219  0092                     	;# 
  1220  0093                     	;# 
  1221  0094                     	;# 
  1222  0097                     	;# 
  1223  009B                     	;# 
  1224  009B                     	;# 
  1225  009C                     	;# 
  1226  009D                     	;# 
  1227  009E                     	;# 
  1228  009F                     	;# 
  1229  010C                     	;# 
  1230  010E                     	;# 
  1231  0111                     	;# 
  1232  0112                     	;# 
  1233  0113                     	;# 
  1234  0114                     	;# 
  1235  0115                     	;# 
  1236  0116                     	;# 
  1237  0117                     	;# 
  1238  0118                     	;# 
  1239  0119                     	;# 
  1240  018C                     	;# 
  1241  018E                     	;# 
  1242  0197                     	;# 
  1243  0199                     	;# 
  1244  0199                     	;# 
  1245  0199                     	;# 
  1246  019A                     	;# 
  1247  019A                     	;# 
  1248  019A                     	;# 
  1249  019B                     	;# 
  1250  019B                     	;# 
  1251  019B                     	;# 
  1252  019B                     	;# 
  1253  019B                     	;# 
  1254  019C                     	;# 
  1255  019C                     	;# 
  1256  019C                     	;# 
  1257  019D                     	;# 
  1258  019D                     	;# 
  1259  019D                     	;# 
  1260  019E                     	;# 
  1261  019E                     	;# 
  1262  019E                     	;# 
  1263  019F                     	;# 
  1264  019F                     	;# 
  1265  019F                     	;# 
  1266  019F                     	;# 
  1267  019F                     	;# 
  1268  020C                     	;# 
  1269  020E                     	;# 
  1270  0211                     	;# 
  1271  0211                     	;# 
  1272  0212                     	;# 
  1273  0212                     	;# 
  1274  0213                     	;# 
  1275  0213                     	;# 
  1276  0214                     	;# 
  1277  0214                     	;# 
  1278  0215                     	;# 
  1279  0215                     	;# 
  1280  0215                     	;# 
  1281  0215                     	;# 
  1282  0216                     	;# 
  1283  0216                     	;# 
  1284  0217                     	;# 
  1285  0217                     	;# 
  1286  0219                     	;# 
  1287  021A                     	;# 
  1288  021B                     	;# 
  1289  021C                     	;# 
  1290  021D                     	;# 
  1291  021D                     	;# 
  1292  021E                     	;# 
  1293  021F                     	;# 
  1294  028C                     	;# 
  1295  028E                     	;# 
  1296  0291                     	;# 
  1297  0291                     	;# 
  1298  0292                     	;# 
  1299  0293                     	;# 
  1300  0294                     	;# 
  1301  0295                     	;# 
  1302  0295                     	;# 
  1303  0296                     	;# 
  1304  0297                     	;# 
  1305  0298                     	;# 
  1306  029F                     	;# 
  1307  030C                     	;# 
  1308  030E                     	;# 
  1309  0311                     	;# 
  1310  0311                     	;# 
  1311  0312                     	;# 
  1312  0313                     	;# 
  1313  0314                     	;# 
  1314  0315                     	;# 
  1315  0315                     	;# 
  1316  0316                     	;# 
  1317  0317                     	;# 
  1318  0318                     	;# 
  1319  038C                     	;# 
  1320  038E                     	;# 
  1321  0391                     	;# 
  1322  0392                     	;# 
  1323  0393                     	;# 
  1324  0397                     	;# 
  1325  0398                     	;# 
  1326  0399                     	;# 
  1327  039A                     	;# 
  1328  039C                     	;# 
  1329  039D                     	;# 
  1330  039E                     	;# 
  1331  039F                     	;# 
  1332  0411                     	;# 
  1333  0411                     	;# 
  1334  0412                     	;# 
  1335  0413                     	;# 
  1336  0414                     	;# 
  1337  0415                     	;# 
  1338  0416                     	;# 
  1339  0417                     	;# 
  1340  0418                     	;# 
  1341  0418                     	;# 
  1342  0419                     	;# 
  1343  041A                     	;# 
  1344  041B                     	;# 
  1345  041C                     	;# 
  1346  041D                     	;# 
  1347  041E                     	;# 
  1348  041F                     	;# 
  1349  0498                     	;# 
  1350  0498                     	;# 
  1351  0499                     	;# 
  1352  049A                     	;# 
  1353  049B                     	;# 
  1354  049B                     	;# 
  1355  049C                     	;# 
  1356  049D                     	;# 
  1357  049E                     	;# 
  1358  049F                     	;# 
  1359  0617                     	;# 
  1360  0618                     	;# 
  1361  0619                     	;# 
  1362  0619                     	;# 
  1363  061A                     	;# 
  1364  061B                     	;# 
  1365  061C                     	;# 
  1366  061C                     	;# 
  1367  061F                     	;# 
  1368  0691                     	;# 
  1369  0692                     	;# 
  1370  0693                     	;# 
  1371  0694                     	;# 
  1372  0695                     	;# 
  1373  0696                     	;# 
  1374  0697                     	;# 
  1375  0698                     	;# 
  1376  0699                     	;# 
  1377  0711                     	;# 
  1378  0712                     	;# 
  1379  0713                     	;# 
  1380  0714                     	;# 
  1381  0715                     	;# 
  1382  0716                     	;# 
  1383  0717                     	;# 
  1384  0718                     	;# 
  1385  0719                     	;# 
  1386  0891                     	;# 
  1387  0891                     	;# 
  1388  0891                     	;# 
  1389  0891                     	;# 
  1390  0891                     	;# 
  1391  0891                     	;# 
  1392  0892                     	;# 
  1393  0892                     	;# 
  1394  0892                     	;# 
  1395  0893                     	;# 
  1396  0893                     	;# 
  1397  0893                     	;# 
  1398  0893                     	;# 
  1399  0893                     	;# 
  1400  0893                     	;# 
  1401  0894                     	;# 
  1402  0894                     	;# 
  1403  0894                     	;# 
  1404  0895                     	;# 
  1405  0895                     	;# 
  1406  0895                     	;# 
  1407  0896                     	;# 
  1408  0896                     	;# 
  1409  0896                     	;# 
  1410  089B                     	;# 
  1411  0911                     	;# 
  1412  0912                     	;# 
  1413  0913                     	;# 
  1414  0914                     	;# 
  1415  0915                     	;# 
  1416  0916                     	;# 
  1417  0918                     	;# 
  1418  0919                     	;# 
  1419  091A                     	;# 
  1420  091B                     	;# 
  1421  091C                     	;# 
  1422  091D                     	;# 
  1423  091E                     	;# 
  1424  091F                     	;# 
  1425  0E0F                     	;# 
  1426  0E10                     	;# 
  1427  0E11                     	;# 
  1428  0E12                     	;# 
  1429  0E13                     	;# 
  1430  0E14                     	;# 
  1431  0E15                     	;# 
  1432  0E16                     	;# 
  1433  0E17                     	;# 
  1434  0E18                     	;# 
  1435  0E19                     	;# 
  1436  0E1A                     	;# 
  1437  0E1B                     	;# 
  1438  0E1C                     	;# 
  1439  0E1D                     	;# 
  1440  0E1E                     	;# 
  1441  0E1F                     	;# 
  1442  0E20                     	;# 
  1443  0E21                     	;# 
  1444  0E22                     	;# 
  1445  0E24                     	;# 
  1446  0E25                     	;# 
  1447  0E28                     	;# 
  1448  0E29                     	;# 
  1449  0E2A                     	;# 
  1450  0E2B                     	;# 
  1451  0E2C                     	;# 
  1452  0E2D                     	;# 
  1453  0E2E                     	;# 
  1454  0E2F                     	;# 
  1455  0E90                     	;# 
  1456  0E91                     	;# 
  1457  0E92                     	;# 
  1458  0E94                     	;# 
  1459  0E95                     	;# 
  1460  0EA0                     	;# 
  1461  0EA1                     	;# 
  1462  0EA2                     	;# 
  1463  0EA3                     	;# 
  1464  0EA4                     	;# 
  1465  0EA5                     	;# 
  1466  0F0F                     	;# 
  1467  0F10                     	;# 
  1468  0F11                     	;# 
  1469  0F12                     	;# 
  1470  0F13                     	;# 
  1471  0F14                     	;# 
  1472  0F15                     	;# 
  1473  0F16                     	;# 
  1474  0F17                     	;# 
  1475  0F18                     	;# 
  1476  0F19                     	;# 
  1477  0F1A                     	;# 
  1478  0F1B                     	;# 
  1479  0F1C                     	;# 
  1480  0F1D                     	;# 
  1481  0F1E                     	;# 
  1482  0F1F                     	;# 
  1483  0F20                     	;# 
  1484  0F21                     	;# 
  1485  0F22                     	;# 
  1486  0F23                     	;# 
  1487  0F24                     	;# 
  1488  0F25                     	;# 
  1489  0F26                     	;# 
  1490  0F27                     	;# 
  1491  0F28                     	;# 
  1492  0F29                     	;# 
  1493  0F2A                     	;# 
  1494  0F2B                     	;# 
  1495  0F2C                     	;# 
  1496  0F2D                     	;# 
  1497  0F2E                     	;# 
  1498  0F2F                     	;# 
  1499  0F30                     	;# 
  1500  0F31                     	;# 
  1501  0F32                     	;# 
  1502  0F33                     	;# 
  1503  0F34                     	;# 
  1504  0F35                     	;# 
  1505  0F36                     	;# 
  1506  0F37                     	;# 
  1507  0FE4                     	;# 
  1508  0FE5                     	;# 
  1509  0FE6                     	;# 
  1510  0FE7                     	;# 
  1511  0FE8                     	;# 
  1512  0FE9                     	;# 
  1513  0FEA                     	;# 
  1514  0FEB                     	;# 
  1515  0FED                     	;# 
  1516  0FEE                     	;# 
  1517  0FEF                     	;# 
  1518  0000                     	;# 
  1519  0001                     	;# 
  1520  0002                     	;# 
  1521  0003                     	;# 
  1522  0004                     	;# 
  1523  0005                     	;# 
  1524  0006                     	;# 
  1525  0007                     	;# 
  1526  0008                     	;# 
  1527  0009                     	;# 
  1528  000A                     	;# 
  1529  000B                     	;# 
  1530  000C                     	;# 
  1531  000E                     	;# 
  1532  0010                     	;# 
  1533  0011                     	;# 
  1534  0012                     	;# 
  1535  0013                     	;# 
  1536  0014                     	;# 
  1537  0015                     	;# 
  1538  0015                     	;# 
  1539  0016                     	;# 
  1540  0016                     	;# 
  1541  0017                     	;# 
  1542  0018                     	;# 
  1543  0019                     	;# 
  1544  0019                     	;# 
  1545  001A                     	;# 
  1546  001B                     	;# 
  1547  001C                     	;# 
  1548  001D                     	;# 
  1549  001E                     	;# 
  1550  001F                     	;# 
  1551  008C                     	;# 
  1552  008E                     	;# 
  1553  0090                     	;# 
  1554  0091                     	;# 
  1555  0092                     	;# 
  1556  0093                     	;# 
  1557  0094                     	;# 
  1558  0097                     	;# 
  1559  009B                     	;# 
  1560  009B                     	;# 
  1561  009C                     	;# 
  1562  009D                     	;# 
  1563  009E                     	;# 
  1564  009F                     	;# 
  1565  010C                     	;# 
  1566  010E                     	;# 
  1567  0111                     	;# 
  1568  0112                     	;# 
  1569  0113                     	;# 
  1570  0114                     	;# 
  1571  0115                     	;# 
  1572  0116                     	;# 
  1573  0117                     	;# 
  1574  0118                     	;# 
  1575  0119                     	;# 
  1576  018C                     	;# 
  1577  018E                     	;# 
  1578  0197                     	;# 
  1579  0199                     	;# 
  1580  0199                     	;# 
  1581  0199                     	;# 
  1582  019A                     	;# 
  1583  019A                     	;# 
  1584  019A                     	;# 
  1585  019B                     	;# 
  1586  019B                     	;# 
  1587  019B                     	;# 
  1588  019B                     	;# 
  1589  019B                     	;# 
  1590  019C                     	;# 
  1591  019C                     	;# 
  1592  019C                     	;# 
  1593  019D                     	;# 
  1594  019D                     	;# 
  1595  019D                     	;# 
  1596  019E                     	;# 
  1597  019E                     	;# 
  1598  019E                     	;# 
  1599  019F                     	;# 
  1600  019F                     	;# 
  1601  019F                     	;# 
  1602  019F                     	;# 
  1603  019F                     	;# 
  1604  020C                     	;# 
  1605  020E                     	;# 
  1606  0211                     	;# 
  1607  0211                     	;# 
  1608  0212                     	;# 
  1609  0212                     	;# 
  1610  0213                     	;# 
  1611  0213                     	;# 
  1612  0214                     	;# 
  1613  0214                     	;# 
  1614  0215                     	;# 
  1615  0215                     	;# 
  1616  0215                     	;# 
  1617  0215                     	;# 
  1618  0216                     	;# 
  1619  0216                     	;# 
  1620  0217                     	;# 
  1621  0217                     	;# 
  1622  0219                     	;# 
  1623  021A                     	;# 
  1624  021B                     	;# 
  1625  021C                     	;# 
  1626  021D                     	;# 
  1627  021D                     	;# 
  1628  021E                     	;# 
  1629  021F                     	;# 
  1630  028C                     	;# 
  1631  028E                     	;# 
  1632  0291                     	;# 
  1633  0291                     	;# 
  1634  0292                     	;# 
  1635  0293                     	;# 
  1636  0294                     	;# 
  1637  0295                     	;# 
  1638  0295                     	;# 
  1639  0296                     	;# 
  1640  0297                     	;# 
  1641  0298                     	;# 
  1642  029F                     	;# 
  1643  030C                     	;# 
  1644  030E                     	;# 
  1645  0311                     	;# 
  1646  0311                     	;# 
  1647  0312                     	;# 
  1648  0313                     	;# 
  1649  0314                     	;# 
  1650  0315                     	;# 
  1651  0315                     	;# 
  1652  0316                     	;# 
  1653  0317                     	;# 
  1654  0318                     	;# 
  1655  038C                     	;# 
  1656  038E                     	;# 
  1657  0391                     	;# 
  1658  0392                     	;# 
  1659  0393                     	;# 
  1660  0397                     	;# 
  1661  0398                     	;# 
  1662  0399                     	;# 
  1663  039A                     	;# 
  1664  039C                     	;# 
  1665  039D                     	;# 
  1666  039E                     	;# 
  1667  039F                     	;# 
  1668  0411                     	;# 
  1669  0411                     	;# 
  1670  0412                     	;# 
  1671  0413                     	;# 
  1672  0414                     	;# 
  1673  0415                     	;# 
  1674  0416                     	;# 
  1675  0417                     	;# 
  1676  0418                     	;# 
  1677  0418                     	;# 
  1678  0419                     	;# 
  1679  041A                     	;# 
  1680  041B                     	;# 
  1681  041C                     	;# 
  1682  041D                     	;# 
  1683  041E                     	;# 
  1684  041F                     	;# 
  1685  0498                     	;# 
  1686  0498                     	;# 
  1687  0499                     	;# 
  1688  049A                     	;# 
  1689  049B                     	;# 
  1690  049B                     	;# 
  1691  049C                     	;# 
  1692  049D                     	;# 
  1693  049E                     	;# 
  1694  049F                     	;# 
  1695  0617                     	;# 
  1696  0618                     	;# 
  1697  0619                     	;# 
  1698  0619                     	;# 
  1699  061A                     	;# 
  1700  061B                     	;# 
  1701  061C                     	;# 
  1702  061C                     	;# 
  1703  061F                     	;# 
  1704  0691                     	;# 
  1705  0692                     	;# 
  1706  0693                     	;# 
  1707  0694                     	;# 
  1708  0695                     	;# 
  1709  0696                     	;# 
  1710  0697                     	;# 
  1711  0698                     	;# 
  1712  0699                     	;# 
  1713  0711                     	;# 
  1714  0712                     	;# 
  1715  0713                     	;# 
  1716  0714                     	;# 
  1717  0715                     	;# 
  1718  0716                     	;# 
  1719  0717                     	;# 
  1720  0718                     	;# 
  1721  0719                     	;# 
  1722  0891                     	;# 
  1723  0891                     	;# 
  1724  0891                     	;# 
  1725  0891                     	;# 
  1726  0891                     	;# 
  1727  0891                     	;# 
  1728  0892                     	;# 
  1729  0892                     	;# 
  1730  0892                     	;# 
  1731  0893                     	;# 
  1732  0893                     	;# 
  1733  0893                     	;# 
  1734  0893                     	;# 
  1735  0893                     	;# 
  1736  0893                     	;# 
  1737  0894                     	;# 
  1738  0894                     	;# 
  1739  0894                     	;# 
  1740  0895                     	;# 
  1741  0895                     	;# 
  1742  0895                     	;# 
  1743  0896                     	;# 
  1744  0896                     	;# 
  1745  0896                     	;# 
  1746  089B                     	;# 
  1747  0911                     	;# 
  1748  0912                     	;# 
  1749  0913                     	;# 
  1750  0914                     	;# 
  1751  0915                     	;# 
  1752  0916                     	;# 
  1753  0918                     	;# 
  1754  0919                     	;# 
  1755  091A                     	;# 
  1756  091B                     	;# 
  1757  091C                     	;# 
  1758  091D                     	;# 
  1759  091E                     	;# 
  1760  091F                     	;# 
  1761  0E0F                     	;# 
  1762  0E10                     	;# 
  1763  0E11                     	;# 
  1764  0E12                     	;# 
  1765  0E13                     	;# 
  1766  0E14                     	;# 
  1767  0E15                     	;# 
  1768  0E16                     	;# 
  1769  0E17                     	;# 
  1770  0E18                     	;# 
  1771  0E19                     	;# 
  1772  0E1A                     	;# 
  1773  0E1B                     	;# 
  1774  0E1C                     	;# 
  1775  0E1D                     	;# 
  1776  0E1E                     	;# 
  1777  0E1F                     	;# 
  1778  0E20                     	;# 
  1779  0E21                     	;# 
  1780  0E22                     	;# 
  1781  0E24                     	;# 
  1782  0E25                     	;# 
  1783  0E28                     	;# 
  1784  0E29                     	;# 
  1785  0E2A                     	;# 
  1786  0E2B                     	;# 
  1787  0E2C                     	;# 
  1788  0E2D                     	;# 
  1789  0E2E                     	;# 
  1790  0E2F                     	;# 
  1791  0E90                     	;# 
  1792  0E91                     	;# 
  1793  0E92                     	;# 
  1794  0E94                     	;# 
  1795  0E95                     	;# 
  1796  0EA0                     	;# 
  1797  0EA1                     	;# 
  1798  0EA2                     	;# 
  1799  0EA3                     	;# 
  1800  0EA4                     	;# 
  1801  0EA5                     	;# 
  1802  0F0F                     	;# 
  1803  0F10                     	;# 
  1804  0F11                     	;# 
  1805  0F12                     	;# 
  1806  0F13                     	;# 
  1807  0F14                     	;# 
  1808  0F15                     	;# 
  1809  0F16                     	;# 
  1810  0F17                     	;# 
  1811  0F18                     	;# 
  1812  0F19                     	;# 
  1813  0F1A                     	;# 
  1814  0F1B                     	;# 
  1815  0F1C                     	;# 
  1816  0F1D                     	;# 
  1817  0F1E                     	;# 
  1818  0F1F                     	;# 
  1819  0F20                     	;# 
  1820  0F21                     	;# 
  1821  0F22                     	;# 
  1822  0F23                     	;# 
  1823  0F24                     	;# 
  1824  0F25                     	;# 
  1825  0F26                     	;# 
  1826  0F27                     	;# 
  1827  0F28                     	;# 
  1828  0F29                     	;# 
  1829  0F2A                     	;# 
  1830  0F2B                     	;# 
  1831  0F2C                     	;# 
  1832  0F2D                     	;# 
  1833  0F2E                     	;# 
  1834  0F2F                     	;# 
  1835  0F30                     	;# 
  1836  0F31                     	;# 
  1837  0F32                     	;# 
  1838  0F33                     	;# 
  1839  0F34                     	;# 
  1840  0F35                     	;# 
  1841  0F36                     	;# 
  1842  0F37                     	;# 
  1843  0FE4                     	;# 
  1844  0FE5                     	;# 
  1845  0FE6                     	;# 
  1846  0FE7                     	;# 
  1847  0FE8                     	;# 
  1848  0FE9                     	;# 
  1849  0FEA                     	;# 
  1850  0FEB                     	;# 
  1851  0FED                     	;# 
  1852  0FEE                     	;# 
  1853  0FEF                     	;# 
  1854  0000                     	;# 
  1855  0001                     	;# 
  1856  0002                     	;# 
  1857  0003                     	;# 
  1858  0004                     	;# 
  1859  0005                     	;# 
  1860  0006                     	;# 
  1861  0007                     	;# 
  1862  0008                     	;# 
  1863  0009                     	;# 
  1864  000A                     	;# 
  1865  000B                     	;# 
  1866  000C                     	;# 
  1867  000E                     	;# 
  1868  0010                     	;# 
  1869  0011                     	;# 
  1870  0012                     	;# 
  1871  0013                     	;# 
  1872  0014                     	;# 
  1873  0015                     	;# 
  1874  0015                     	;# 
  1875  0016                     	;# 
  1876  0016                     	;# 
  1877  0017                     	;# 
  1878  0018                     	;# 
  1879  0019                     	;# 
  1880  0019                     	;# 
  1881  001A                     	;# 
  1882  001B                     	;# 
  1883  001C                     	;# 
  1884  001D                     	;# 
  1885  001E                     	;# 
  1886  001F                     	;# 
  1887  008C                     	;# 
  1888  008E                     	;# 
  1889  0090                     	;# 
  1890  0091                     	;# 
  1891  0092                     	;# 
  1892  0093                     	;# 
  1893  0094                     	;# 
  1894  0097                     	;# 
  1895  009B                     	;# 
  1896  009B                     	;# 
  1897  009C                     	;# 
  1898  009D                     	;# 
  1899  009E                     	;# 
  1900  009F                     	;# 
  1901  010C                     	;# 
  1902  010E                     	;# 
  1903  0111                     	;# 
  1904  0112                     	;# 
  1905  0113                     	;# 
  1906  0114                     	;# 
  1907  0115                     	;# 
  1908  0116                     	;# 
  1909  0117                     	;# 
  1910  0118                     	;# 
  1911  0119                     	;# 
  1912  018C                     	;# 
  1913  018E                     	;# 
  1914  0197                     	;# 
  1915  0199                     	;# 
  1916  0199                     	;# 
  1917  0199                     	;# 
  1918  019A                     	;# 
  1919  019A                     	;# 
  1920  019A                     	;# 
  1921  019B                     	;# 
  1922  019B                     	;# 
  1923  019B                     	;# 
  1924  019B                     	;# 
  1925  019B                     	;# 
  1926  019C                     	;# 
  1927  019C                     	;# 
  1928  019C                     	;# 
  1929  019D                     	;# 
  1930  019D                     	;# 
  1931  019D                     	;# 
  1932  019E                     	;# 
  1933  019E                     	;# 
  1934  019E                     	;# 
  1935  019F                     	;# 
  1936  019F                     	;# 
  1937  019F                     	;# 
  1938  019F                     	;# 
  1939  019F                     	;# 
  1940  020C                     	;# 
  1941  020E                     	;# 
  1942  0211                     	;# 
  1943  0211                     	;# 
  1944  0212                     	;# 
  1945  0212                     	;# 
  1946  0213                     	;# 
  1947  0213                     	;# 
  1948  0214                     	;# 
  1949  0214                     	;# 
  1950  0215                     	;# 
  1951  0215                     	;# 
  1952  0215                     	;# 
  1953  0215                     	;# 
  1954  0216                     	;# 
  1955  0216                     	;# 
  1956  0217                     	;# 
  1957  0217                     	;# 
  1958  0219                     	;# 
  1959  021A                     	;# 
  1960  021B                     	;# 
  1961  021C                     	;# 
  1962  021D                     	;# 
  1963  021D                     	;# 
  1964  021E                     	;# 
  1965  021F                     	;# 
  1966  028C                     	;# 
  1967  028E                     	;# 
  1968  0291                     	;# 
  1969  0291                     	;# 
  1970  0292                     	;# 
  1971  0293                     	;# 
  1972  0294                     	;# 
  1973  0295                     	;# 
  1974  0295                     	;# 
  1975  0296                     	;# 
  1976  0297                     	;# 
  1977  0298                     	;# 
  1978  029F                     	;# 
  1979  030C                     	;# 
  1980  030E                     	;# 
  1981  0311                     	;# 
  1982  0311                     	;# 
  1983  0312                     	;# 
  1984  0313                     	;# 
  1985  0314                     	;# 
  1986  0315                     	;# 
  1987  0315                     	;# 
  1988  0316                     	;# 
  1989  0317                     	;# 
  1990  0318                     	;# 
  1991  038C                     	;# 
  1992  038E                     	;# 
  1993  0391                     	;# 
  1994  0392                     	;# 
  1995  0393                     	;# 
  1996  0397                     	;# 
  1997  0398                     	;# 
  1998  0399                     	;# 
  1999  039A                     	;# 
  2000  039C                     	;# 
  2001  039D                     	;# 
  2002  039E                     	;# 
  2003  039F                     	;# 
  2004  0411                     	;# 
  2005  0411                     	;# 
  2006  0412                     	;# 
  2007  0413                     	;# 
  2008  0414                     	;# 
  2009  0415                     	;# 
  2010  0416                     	;# 
  2011  0417                     	;# 
  2012  0418                     	;# 
  2013  0418                     	;# 
  2014  0419                     	;# 
  2015  041A                     	;# 
  2016  041B                     	;# 
  2017  041C                     	;# 
  2018  041D                     	;# 
  2019  041E                     	;# 
  2020  041F                     	;# 
  2021  0498                     	;# 
  2022  0498                     	;# 
  2023  0499                     	;# 
  2024  049A                     	;# 
  2025  049B                     	;# 
  2026  049B                     	;# 
  2027  049C                     	;# 
  2028  049D                     	;# 
  2029  049E                     	;# 
  2030  049F                     	;# 
  2031  0617                     	;# 
  2032  0618                     	;# 
  2033  0619                     	;# 
  2034  0619                     	;# 
  2035  061A                     	;# 
  2036  061B                     	;# 
  2037  061C                     	;# 
  2038  061C                     	;# 
  2039  061F                     	;# 
  2040  0691                     	;# 
  2041  0692                     	;# 
  2042  0693                     	;# 
  2043  0694                     	;# 
  2044  0695                     	;# 
  2045  0696                     	;# 
  2046  0697                     	;# 
  2047  0698                     	;# 
  2048  0699                     	;# 
  2049  0711                     	;# 
  2050  0712                     	;# 
  2051  0713                     	;# 
  2052  0714                     	;# 
  2053  0715                     	;# 
  2054  0716                     	;# 
  2055  0717                     	;# 
  2056  0718                     	;# 
  2057  0719                     	;# 
  2058  0891                     	;# 
  2059  0891                     	;# 
  2060  0891                     	;# 
  2061  0891                     	;# 
  2062  0891                     	;# 
  2063  0891                     	;# 
  2064  0892                     	;# 
  2065  0892                     	;# 
  2066  0892                     	;# 
  2067  0893                     	;# 
  2068  0893                     	;# 
  2069  0893                     	;# 
  2070  0893                     	;# 
  2071  0893                     	;# 
  2072  0893                     	;# 
  2073  0894                     	;# 
  2074  0894                     	;# 
  2075  0894                     	;# 
  2076  0895                     	;# 
  2077  0895                     	;# 
  2078  0895                     	;# 
  2079  0896                     	;# 
  2080  0896                     	;# 
  2081  0896                     	;# 
  2082  089B                     	;# 
  2083  0911                     	;# 
  2084  0912                     	;# 
  2085  0913                     	;# 
  2086  0914                     	;# 
  2087  0915                     	;# 
  2088  0916                     	;# 
  2089  0918                     	;# 
  2090  0919                     	;# 
  2091  091A                     	;# 
  2092  091B                     	;# 
  2093  091C                     	;# 
  2094  091D                     	;# 
  2095  091E                     	;# 
  2096  091F                     	;# 
  2097  0E0F                     	;# 
  2098  0E10                     	;# 
  2099  0E11                     	;# 
  2100  0E12                     	;# 
  2101  0E13                     	;# 
  2102  0E14                     	;# 
  2103  0E15                     	;# 
  2104  0E16                     	;# 
  2105  0E17                     	;# 
  2106  0E18                     	;# 
  2107  0E19                     	;# 
  2108  0E1A                     	;# 
  2109  0E1B                     	;# 
  2110  0E1C                     	;# 
  2111  0E1D                     	;# 
  2112  0E1E                     	;# 
  2113  0E1F                     	;# 
  2114  0E20                     	;# 
  2115  0E21                     	;# 
  2116  0E22                     	;# 
  2117  0E24                     	;# 
  2118  0E25                     	;# 
  2119  0E28                     	;# 
  2120  0E29                     	;# 
  2121  0E2A                     	;# 
  2122  0E2B                     	;# 
  2123  0E2C                     	;# 
  2124  0E2D                     	;# 
  2125  0E2E                     	;# 
  2126  0E2F                     	;# 
  2127  0E90                     	;# 
  2128  0E91                     	;# 
  2129  0E92                     	;# 
  2130  0E94                     	;# 
  2131  0E95                     	;# 
  2132  0EA0                     	;# 
  2133  0EA1                     	;# 
  2134  0EA2                     	;# 
  2135  0EA3                     	;# 
  2136  0EA4                     	;# 
  2137  0EA5                     	;# 
  2138  0F0F                     	;# 
  2139  0F10                     	;# 
  2140  0F11                     	;# 
  2141  0F12                     	;# 
  2142  0F13                     	;# 
  2143  0F14                     	;# 
  2144  0F15                     	;# 
  2145  0F16                     	;# 
  2146  0F17                     	;# 
  2147  0F18                     	;# 
  2148  0F19                     	;# 
  2149  0F1A                     	;# 
  2150  0F1B                     	;# 
  2151  0F1C                     	;# 
  2152  0F1D                     	;# 
  2153  0F1E                     	;# 
  2154  0F1F                     	;# 
  2155  0F20                     	;# 
  2156  0F21                     	;# 
  2157  0F22                     	;# 
  2158  0F23                     	;# 
  2159  0F24                     	;# 
  2160  0F25                     	;# 
  2161  0F26                     	;# 
  2162  0F27                     	;# 
  2163  0F28                     	;# 
  2164  0F29                     	;# 
  2165  0F2A                     	;# 
  2166  0F2B                     	;# 
  2167  0F2C                     	;# 
  2168  0F2D                     	;# 
  2169  0F2E                     	;# 
  2170  0F2F                     	;# 
  2171  0F30                     	;# 
  2172  0F31                     	;# 
  2173  0F32                     	;# 
  2174  0F33                     	;# 
  2175  0F34                     	;# 
  2176  0F35                     	;# 
  2177  0F36                     	;# 
  2178  0F37                     	;# 
  2179  0FE4                     	;# 
  2180  0FE5                     	;# 
  2181  0FE6                     	;# 
  2182  0FE7                     	;# 
  2183  0FE8                     	;# 
  2184  0FE9                     	;# 
  2185  0FEA                     	;# 
  2186  0FEB                     	;# 
  2187  0FED                     	;# 
  2188  0FEE                     	;# 
  2189  0FEF                     	;# 
  2190  0000                     	;# 
  2191  0001                     	;# 
  2192  0002                     	;# 
  2193  0003                     	;# 
  2194  0004                     	;# 
  2195  0005                     	;# 
  2196  0006                     	;# 
  2197  0007                     	;# 
  2198  0008                     	;# 
  2199  0009                     	;# 
  2200  000A                     	;# 
  2201  000B                     	;# 
  2202  000C                     	;# 
  2203  000E                     	;# 
  2204  0010                     	;# 
  2205  0011                     	;# 
  2206  0012                     	;# 
  2207  0013                     	;# 
  2208  0014                     	;# 
  2209  0015                     	;# 
  2210  0015                     	;# 
  2211  0016                     	;# 
  2212  0016                     	;# 
  2213  0017                     	;# 
  2214  0018                     	;# 
  2215  0019                     	;# 
  2216  0019                     	;# 
  2217  001A                     	;# 
  2218  001B                     	;# 
  2219  001C                     	;# 
  2220  001D                     	;# 
  2221  001E                     	;# 
  2222  001F                     	;# 
  2223  008C                     	;# 
  2224  008E                     	;# 
  2225  0090                     	;# 
  2226  0091                     	;# 
  2227  0092                     	;# 
  2228  0093                     	;# 
  2229  0094                     	;# 
  2230  0097                     	;# 
  2231  009B                     	;# 
  2232  009B                     	;# 
  2233  009C                     	;# 
  2234  009D                     	;# 
  2235  009E                     	;# 
  2236  009F                     	;# 
  2237  010C                     	;# 
  2238  010E                     	;# 
  2239  0111                     	;# 
  2240  0112                     	;# 
  2241  0113                     	;# 
  2242  0114                     	;# 
  2243  0115                     	;# 
  2244  0116                     	;# 
  2245  0117                     	;# 
  2246  0118                     	;# 
  2247  0119                     	;# 
  2248  018C                     	;# 
  2249  018E                     	;# 
  2250  0197                     	;# 
  2251  0199                     	;# 
  2252  0199                     	;# 
  2253  0199                     	;# 
  2254  019A                     	;# 
  2255  019A                     	;# 
  2256  019A                     	;# 
  2257  019B                     	;# 
  2258  019B                     	;# 
  2259  019B                     	;# 
  2260  019B                     	;# 
  2261  019B                     	;# 
  2262  019C                     	;# 
  2263  019C                     	;# 
  2264  019C                     	;# 
  2265  019D                     	;# 
  2266  019D                     	;# 
  2267  019D                     	;# 
  2268  019E                     	;# 
  2269  019E                     	;# 
  2270  019E                     	;# 
  2271  019F                     	;# 
  2272  019F                     	;# 
  2273  019F                     	;# 
  2274  019F                     	;# 
  2275  019F                     	;# 
  2276  020C                     	;# 
  2277  020E                     	;# 
  2278  0211                     	;# 
  2279  0211                     	;# 
  2280  0212                     	;# 
  2281  0212                     	;# 
  2282  0213                     	;# 
  2283  0213                     	;# 
  2284  0214                     	;# 
  2285  0214                     	;# 
  2286  0215                     	;# 
  2287  0215                     	;# 
  2288  0215                     	;# 
  2289  0215                     	;# 
  2290  0216                     	;# 
  2291  0216                     	;# 
  2292  0217                     	;# 
  2293  0217                     	;# 
  2294  0219                     	;# 
  2295  021A                     	;# 
  2296  021B                     	;# 
  2297  021C                     	;# 
  2298  021D                     	;# 
  2299  021D                     	;# 
  2300  021E                     	;# 
  2301  021F                     	;# 
  2302  028C                     	;# 
  2303  028E                     	;# 
  2304  0291                     	;# 
  2305  0291                     	;# 
  2306  0292                     	;# 
  2307  0293                     	;# 
  2308  0294                     	;# 
  2309  0295                     	;# 
  2310  0295                     	;# 
  2311  0296                     	;# 
  2312  0297                     	;# 
  2313  0298                     	;# 
  2314  029F                     	;# 
  2315  030C                     	;# 
  2316  030E                     	;# 
  2317  0311                     	;# 
  2318  0311                     	;# 
  2319  0312                     	;# 
  2320  0313                     	;# 
  2321  0314                     	;# 
  2322  0315                     	;# 
  2323  0315                     	;# 
  2324  0316                     	;# 
  2325  0317                     	;# 
  2326  0318                     	;# 
  2327  038C                     	;# 
  2328  038E                     	;# 
  2329  0391                     	;# 
  2330  0392                     	;# 
  2331  0393                     	;# 
  2332  0397                     	;# 
  2333  0398                     	;# 
  2334  0399                     	;# 
  2335  039A                     	;# 
  2336  039C                     	;# 
  2337  039D                     	;# 
  2338  039E                     	;# 
  2339  039F                     	;# 
  2340  0411                     	;# 
  2341  0411                     	;# 
  2342  0412                     	;# 
  2343  0413                     	;# 
  2344  0414                     	;# 
  2345  0415                     	;# 
  2346  0416                     	;# 
  2347  0417                     	;# 
  2348  0418                     	;# 
  2349  0418                     	;# 
  2350  0419                     	;# 
  2351  041A                     	;# 
  2352  041B                     	;# 
  2353  041C                     	;# 
  2354  041D                     	;# 
  2355  041E                     	;# 
  2356  041F                     	;# 
  2357  0498                     	;# 
  2358  0498                     	;# 
  2359  0499                     	;# 
  2360  049A                     	;# 
  2361  049B                     	;# 
  2362  049B                     	;# 
  2363  049C                     	;# 
  2364  049D                     	;# 
  2365  049E                     	;# 
  2366  049F                     	;# 
  2367  0617                     	;# 
  2368  0618                     	;# 
  2369  0619                     	;# 
  2370  0619                     	;# 
  2371  061A                     	;# 
  2372  061B                     	;# 
  2373  061C                     	;# 
  2374  061C                     	;# 
  2375  061F                     	;# 
  2376  0691                     	;# 
  2377  0692                     	;# 
  2378  0693                     	;# 
  2379  0694                     	;# 
  2380  0695                     	;# 
  2381  0696                     	;# 
  2382  0697                     	;# 
  2383  0698                     	;# 
  2384  0699                     	;# 
  2385  0711                     	;# 
  2386  0712                     	;# 
  2387  0713                     	;# 
  2388  0714                     	;# 
  2389  0715                     	;# 
  2390  0716                     	;# 
  2391  0717                     	;# 
  2392  0718                     	;# 
  2393  0719                     	;# 
  2394  0891                     	;# 
  2395  0891                     	;# 
  2396  0891                     	;# 
  2397  0891                     	;# 
  2398  0891                     	;# 
  2399  0891                     	;# 
  2400  0892                     	;# 
  2401  0892                     	;# 
  2402  0892                     	;# 
  2403  0893                     	;# 
  2404  0893                     	;# 
  2405  0893                     	;# 
  2406  0893                     	;# 
  2407  0893                     	;# 
  2408  0893                     	;# 
  2409  0894                     	;# 
  2410  0894                     	;# 
  2411  0894                     	;# 
  2412  0895                     	;# 
  2413  0895                     	;# 
  2414  0895                     	;# 
  2415  0896                     	;# 
  2416  0896                     	;# 
  2417  0896                     	;# 
  2418  089B                     	;# 
  2419  0911                     	;# 
  2420  0912                     	;# 
  2421  0913                     	;# 
  2422  0914                     	;# 
  2423  0915                     	;# 
  2424  0916                     	;# 
  2425  0918                     	;# 
  2426  0919                     	;# 
  2427  091A                     	;# 
  2428  091B                     	;# 
  2429  091C                     	;# 
  2430  091D                     	;# 
  2431  091E                     	;# 
  2432  091F                     	;# 
  2433  0E0F                     	;# 
  2434  0E10                     	;# 
  2435  0E11                     	;# 
  2436  0E12                     	;# 
  2437  0E13                     	;# 
  2438  0E14                     	;# 
  2439  0E15                     	;# 
  2440  0E16                     	;# 
  2441  0E17                     	;# 
  2442  0E18                     	;# 
  2443  0E19                     	;# 
  2444  0E1A                     	;# 
  2445  0E1B                     	;# 
  2446  0E1C                     	;# 
  2447  0E1D                     	;# 
  2448  0E1E                     	;# 
  2449  0E1F                     	;# 
  2450  0E20                     	;# 
  2451  0E21                     	;# 
  2452  0E22                     	;# 
  2453  0E24                     	;# 
  2454  0E25                     	;# 
  2455  0E28                     	;# 
  2456  0E29                     	;# 
  2457  0E2A                     	;# 
  2458  0E2B                     	;# 
  2459  0E2C                     	;# 
  2460  0E2D                     	;# 
  2461  0E2E                     	;# 
  2462  0E2F                     	;# 
  2463  0E90                     	;# 
  2464  0E91                     	;# 
  2465  0E92                     	;# 
  2466  0E94                     	;# 
  2467  0E95                     	;# 
  2468  0EA0                     	;# 
  2469  0EA1                     	;# 
  2470  0EA2                     	;# 
  2471  0EA3                     	;# 
  2472  0EA4                     	;# 
  2473  0EA5                     	;# 
  2474  0F0F                     	;# 
  2475  0F10                     	;# 
  2476  0F11                     	;# 
  2477  0F12                     	;# 
  2478  0F13                     	;# 
  2479  0F14                     	;# 
  2480  0F15                     	;# 
  2481  0F16                     	;# 
  2482  0F17                     	;# 
  2483  0F18                     	;# 
  2484  0F19                     	;# 
  2485  0F1A                     	;# 
  2486  0F1B                     	;# 
  2487  0F1C                     	;# 
  2488  0F1D                     	;# 
  2489  0F1E                     	;# 
  2490  0F1F                     	;# 
  2491  0F20                     	;# 
  2492  0F21                     	;# 
  2493  0F22                     	;# 
  2494  0F23                     	;# 
  2495  0F24                     	;# 
  2496  0F25                     	;# 
  2497  0F26                     	;# 
  2498  0F27                     	;# 
  2499  0F28                     	;# 
  2500  0F29                     	;# 
  2501  0F2A                     	;# 
  2502  0F2B                     	;# 
  2503  0F2C                     	;# 
  2504  0F2D                     	;# 
  2505  0F2E                     	;# 
  2506  0F2F                     	;# 
  2507  0F30                     	;# 
  2508  0F31                     	;# 
  2509  0F32                     	;# 
  2510  0F33                     	;# 
  2511  0F34                     	;# 
  2512  0F35                     	;# 
  2513  0F36                     	;# 
  2514  0F37                     	;# 
  2515  0FE4                     	;# 
  2516  0FE5                     	;# 
  2517  0FE6                     	;# 
  2518  0FE7                     	;# 
  2519  0FE8                     	;# 
  2520  0FE9                     	;# 
  2521  0FEA                     	;# 
  2522  0FEB                     	;# 
  2523  0FED                     	;# 
  2524  0FEE                     	;# 
  2525  0FEF                     	;# 
  2526  0000                     	;# 
  2527  0001                     	;# 
  2528  0002                     	;# 
  2529  0003                     	;# 
  2530  0004                     	;# 
  2531  0005                     	;# 
  2532  0006                     	;# 
  2533  0007                     	;# 
  2534  0008                     	;# 
  2535  0009                     	;# 
  2536  000A                     	;# 
  2537  000B                     	;# 
  2538  000C                     	;# 
  2539  000E                     	;# 
  2540  0010                     	;# 
  2541  0011                     	;# 
  2542  0012                     	;# 
  2543  0013                     	;# 
  2544  0014                     	;# 
  2545  0015                     	;# 
  2546  0015                     	;# 
  2547  0016                     	;# 
  2548  0016                     	;# 
  2549  0017                     	;# 
  2550  0018                     	;# 
  2551  0019                     	;# 
  2552  0019                     	;# 
  2553  001A                     	;# 
  2554  001B                     	;# 
  2555  001C                     	;# 
  2556  001D                     	;# 
  2557  001E                     	;# 
  2558  001F                     	;# 
  2559  008C                     	;# 
  2560  008E                     	;# 
  2561  0090                     	;# 
  2562  0091                     	;# 
  2563  0092                     	;# 
  2564  0093                     	;# 
  2565  0094                     	;# 
  2566  0097                     	;# 
  2567  009B                     	;# 
  2568  009B                     	;# 
  2569  009C                     	;# 
  2570  009D                     	;# 
  2571  009E                     	;# 
  2572  009F                     	;# 
  2573  010C                     	;# 
  2574  010E                     	;# 
  2575  0111                     	;# 
  2576  0112                     	;# 
  2577  0113                     	;# 
  2578  0114                     	;# 
  2579  0115                     	;# 
  2580  0116                     	;# 
  2581  0117                     	;# 
  2582  0118                     	;# 
  2583  0119                     	;# 
  2584  018C                     	;# 
  2585  018E                     	;# 
  2586  0197                     	;# 
  2587  0199                     	;# 
  2588  0199                     	;# 
  2589  0199                     	;# 
  2590  019A                     	;# 
  2591  019A                     	;# 
  2592  019A                     	;# 
  2593  019B                     	;# 
  2594  019B                     	;# 
  2595  019B                     	;# 
  2596  019B                     	;# 
  2597  019B                     	;# 
  2598  019C                     	;# 
  2599  019C                     	;# 
  2600  019C                     	;# 
  2601  019D                     	;# 
  2602  019D                     	;# 
  2603  019D                     	;# 
  2604  019E                     	;# 
  2605  019E                     	;# 
  2606  019E                     	;# 
  2607  019F                     	;# 
  2608  019F                     	;# 
  2609  019F                     	;# 
  2610  019F                     	;# 
  2611  019F                     	;# 
  2612  020C                     	;# 
  2613  020E                     	;# 
  2614  0211                     	;# 
  2615  0211                     	;# 
  2616  0212                     	;# 
  2617  0212                     	;# 
  2618  0213                     	;# 
  2619  0213                     	;# 
  2620  0214                     	;# 
  2621  0214                     	;# 
  2622  0215                     	;# 
  2623  0215                     	;# 
  2624  0215                     	;# 
  2625  0215                     	;# 
  2626  0216                     	;# 
  2627  0216                     	;# 
  2628  0217                     	;# 
  2629  0217                     	;# 
  2630  0219                     	;# 
  2631  021A                     	;# 
  2632  021B                     	;# 
  2633  021C                     	;# 
  2634  021D                     	;# 
  2635  021D                     	;# 
  2636  021E                     	;# 
  2637  021F                     	;# 
  2638  028C                     	;# 
  2639  028E                     	;# 
  2640  0291                     	;# 
  2641  0291                     	;# 
  2642  0292                     	;# 
  2643  0293                     	;# 
  2644  0294                     	;# 
  2645  0295                     	;# 
  2646  0295                     	;# 
  2647  0296                     	;# 
  2648  0297                     	;# 
  2649  0298                     	;# 
  2650  029F                     	;# 
  2651  030C                     	;# 
  2652  030E                     	;# 
  2653  0311                     	;# 
  2654  0311                     	;# 
  2655  0312                     	;# 
  2656  0313                     	;# 
  2657  0314                     	;# 
  2658  0315                     	;# 
  2659  0315                     	;# 
  2660  0316                     	;# 
  2661  0317                     	;# 
  2662  0318                     	;# 
  2663  038C                     	;# 
  2664  038E                     	;# 
  2665  0391                     	;# 
  2666  0392                     	;# 
  2667  0393                     	;# 
  2668  0397                     	;# 
  2669  0398                     	;# 
  2670  0399                     	;# 
  2671  039A                     	;# 
  2672  039C                     	;# 
  2673  039D                     	;# 
  2674  039E                     	;# 
  2675  039F                     	;# 
  2676  0411                     	;# 
  2677  0411                     	;# 
  2678  0412                     	;# 
  2679  0413                     	;# 
  2680  0414                     	;# 
  2681  0415                     	;# 
  2682  0416                     	;# 
  2683  0417                     	;# 
  2684  0418                     	;# 
  2685  0418                     	;# 
  2686  0419                     	;# 
  2687  041A                     	;# 
  2688  041B                     	;# 
  2689  041C                     	;# 
  2690  041D                     	;# 
  2691  041E                     	;# 
  2692  041F                     	;# 
  2693  0498                     	;# 
  2694  0498                     	;# 
  2695  0499                     	;# 
  2696  049A                     	;# 
  2697  049B                     	;# 
  2698  049B                     	;# 
  2699  049C                     	;# 
  2700  049D                     	;# 
  2701  049E                     	;# 
  2702  049F                     	;# 
  2703  0617                     	;# 
  2704  0618                     	;# 
  2705  0619                     	;# 
  2706  0619                     	;# 
  2707  061A                     	;# 
  2708  061B                     	;# 
  2709  061C                     	;# 
  2710  061C                     	;# 
  2711  061F                     	;# 
  2712  0691                     	;# 
  2713  0692                     	;# 
  2714  0693                     	;# 
  2715  0694                     	;# 
  2716  0695                     	;# 
  2717  0696                     	;# 
  2718  0697                     	;# 
  2719  0698                     	;# 
  2720  0699                     	;# 
  2721  0711                     	;# 
  2722  0712                     	;# 
  2723  0713                     	;# 
  2724  0714                     	;# 
  2725  0715                     	;# 
  2726  0716                     	;# 
  2727  0717                     	;# 
  2728  0718                     	;# 
  2729  0719                     	;# 
  2730  0891                     	;# 
  2731  0891                     	;# 
  2732  0891                     	;# 
  2733  0891                     	;# 
  2734  0891                     	;# 
  2735  0891                     	;# 
  2736  0892                     	;# 
  2737  0892                     	;# 
  2738  0892                     	;# 
  2739  0893                     	;# 
  2740  0893                     	;# 
  2741  0893                     	;# 
  2742  0893                     	;# 
  2743  0893                     	;# 
  2744  0893                     	;# 
  2745  0894                     	;# 
  2746  0894                     	;# 
  2747  0894                     	;# 
  2748  0895                     	;# 
  2749  0895                     	;# 
  2750  0895                     	;# 
  2751  0896                     	;# 
  2752  0896                     	;# 
  2753  0896                     	;# 
  2754  089B                     	;# 
  2755  0911                     	;# 
  2756  0912                     	;# 
  2757  0913                     	;# 
  2758  0914                     	;# 
  2759  0915                     	;# 
  2760  0916                     	;# 
  2761  0918                     	;# 
  2762  0919                     	;# 
  2763  091A                     	;# 
  2764  091B                     	;# 
  2765  091C                     	;# 
  2766  091D                     	;# 
  2767  091E                     	;# 
  2768  091F                     	;# 
  2769  0E0F                     	;# 
  2770  0E10                     	;# 
  2771  0E11                     	;# 
  2772  0E12                     	;# 
  2773  0E13                     	;# 
  2774  0E14                     	;# 
  2775  0E15                     	;# 
  2776  0E16                     	;# 
  2777  0E17                     	;# 
  2778  0E18                     	;# 
  2779  0E19                     	;# 
  2780  0E1A                     	;# 
  2781  0E1B                     	;# 
  2782  0E1C                     	;# 
  2783  0E1D                     	;# 
  2784  0E1E                     	;# 
  2785  0E1F                     	;# 
  2786  0E20                     	;# 
  2787  0E21                     	;# 
  2788  0E22                     	;# 
  2789  0E24                     	;# 
  2790  0E25                     	;# 
  2791  0E28                     	;# 
  2792  0E29                     	;# 
  2793  0E2A                     	;# 
  2794  0E2B                     	;# 
  2795  0E2C                     	;# 
  2796  0E2D                     	;# 
  2797  0E2E                     	;# 
  2798  0E2F                     	;# 
  2799  0E90                     	;# 
  2800  0E91                     	;# 
  2801  0E92                     	;# 
  2802  0E94                     	;# 
  2803  0E95                     	;# 
  2804  0EA0                     	;# 
  2805  0EA1                     	;# 
  2806  0EA2                     	;# 
  2807  0EA3                     	;# 
  2808  0EA4                     	;# 
  2809  0EA5                     	;# 
  2810  0F0F                     	;# 
  2811  0F10                     	;# 
  2812  0F11                     	;# 
  2813  0F12                     	;# 
  2814  0F13                     	;# 
  2815  0F14                     	;# 
  2816  0F15                     	;# 
  2817  0F16                     	;# 
  2818  0F17                     	;# 
  2819  0F18                     	;# 
  2820  0F19                     	;# 
  2821  0F1A                     	;# 
  2822  0F1B                     	;# 
  2823  0F1C                     	;# 
  2824  0F1D                     	;# 
  2825  0F1E                     	;# 
  2826  0F1F                     	;# 
  2827  0F20                     	;# 
  2828  0F21                     	;# 
  2829  0F22                     	;# 
  2830  0F23                     	;# 
  2831  0F24                     	;# 
  2832  0F25                     	;# 
  2833  0F26                     	;# 
  2834  0F27                     	;# 
  2835  0F28                     	;# 
  2836  0F29                     	;# 
  2837  0F2A                     	;# 
  2838  0F2B                     	;# 
  2839  0F2C                     	;# 
  2840  0F2D                     	;# 
  2841  0F2E                     	;# 
  2842  0F2F                     	;# 
  2843  0F30                     	;# 
  2844  0F31                     	;# 
  2845  0F32                     	;# 
  2846  0F33                     	;# 
  2847  0F34                     	;# 
  2848  0F35                     	;# 
  2849  0F36                     	;# 
  2850  0F37                     	;# 
  2851  0FE4                     	;# 
  2852  0FE5                     	;# 
  2853  0FE6                     	;# 
  2854  0FE7                     	;# 
  2855  0FE8                     	;# 
  2856  0FE9                     	;# 
  2857  0FEA                     	;# 
  2858  0FEB                     	;# 
  2859  0FED                     	;# 
  2860  0FEE                     	;# 
  2861  0FEF                     	;# 
  2862  0000                     	;# 
  2863  0001                     	;# 
  2864  0002                     	;# 
  2865  0003                     	;# 
  2866  0004                     	;# 
  2867  0005                     	;# 
  2868  0006                     	;# 
  2869  0007                     	;# 
  2870  0008                     	;# 
  2871  0009                     	;# 
  2872  000A                     	;# 
  2873  000B                     	;# 
  2874  000C                     	;# 
  2875  000E                     	;# 
  2876  0010                     	;# 
  2877  0011                     	;# 
  2878  0012                     	;# 
  2879  0013                     	;# 
  2880  0014                     	;# 
  2881  0015                     	;# 
  2882  0015                     	;# 
  2883  0016                     	;# 
  2884  0016                     	;# 
  2885  0017                     	;# 
  2886  0018                     	;# 
  2887  0019                     	;# 
  2888  0019                     	;# 
  2889  001A                     	;# 
  2890  001B                     	;# 
  2891  001C                     	;# 
  2892  001D                     	;# 
  2893  001E                     	;# 
  2894  001F                     	;# 
  2895  008C                     	;# 
  2896  008E                     	;# 
  2897  0090                     	;# 
  2898  0091                     	;# 
  2899  0092                     	;# 
  2900  0093                     	;# 
  2901  0094                     	;# 
  2902  0097                     	;# 
  2903  009B                     	;# 
  2904  009B                     	;# 
  2905  009C                     	;# 
  2906  009D                     	;# 
  2907  009E                     	;# 
  2908  009F                     	;# 
  2909  010C                     	;# 
  2910  010E                     	;# 
  2911  0111                     	;# 
  2912  0112                     	;# 
  2913  0113                     	;# 
  2914  0114                     	;# 
  2915  0115                     	;# 
  2916  0116                     	;# 
  2917  0117                     	;# 
  2918  0118                     	;# 
  2919  0119                     	;# 
  2920  018C                     	;# 
  2921  018E                     	;# 
  2922  0197                     	;# 
  2923  0199                     	;# 
  2924  0199                     	;# 
  2925  0199                     	;# 
  2926  019A                     	;# 
  2927  019A                     	;# 
  2928  019A                     	;# 
  2929  019B                     	;# 
  2930  019B                     	;# 
  2931  019B                     	;# 
  2932  019B                     	;# 
  2933  019B                     	;# 
  2934  019C                     	;# 
  2935  019C                     	;# 
  2936  019C                     	;# 
  2937  019D                     	;# 
  2938  019D                     	;# 
  2939  019D                     	;# 
  2940  019E                     	;# 
  2941  019E                     	;# 
  2942  019E                     	;# 
  2943  019F                     	;# 
  2944  019F                     	;# 
  2945  019F                     	;# 
  2946  019F                     	;# 
  2947  019F                     	;# 
  2948  020C                     	;# 
  2949  020E                     	;# 
  2950  0211                     	;# 
  2951  0211                     	;# 
  2952  0212                     	;# 
  2953  0212                     	;# 
  2954  0213                     	;# 
  2955  0213                     	;# 
  2956  0214                     	;# 
  2957  0214                     	;# 
  2958  0215                     	;# 
  2959  0215                     	;# 
  2960  0215                     	;# 
  2961  0215                     	;# 
  2962  0216                     	;# 
  2963  0216                     	;# 
  2964  0217                     	;# 
  2965  0217                     	;# 
  2966  0219                     	;# 
  2967  021A                     	;# 
  2968  021B                     	;# 
  2969  021C                     	;# 
  2970  021D                     	;# 
  2971  021D                     	;# 
  2972  021E                     	;# 
  2973  021F                     	;# 
  2974  028C                     	;# 
  2975  028E                     	;# 
  2976  0291                     	;# 
  2977  0291                     	;# 
  2978  0292                     	;# 
  2979  0293                     	;# 
  2980  0294                     	;# 
  2981  0295                     	;# 
  2982  0295                     	;# 
  2983  0296                     	;# 
  2984  0297                     	;# 
  2985  0298                     	;# 
  2986  029F                     	;# 
  2987  030C                     	;# 
  2988  030E                     	;# 
  2989  0311                     	;# 
  2990  0311                     	;# 
  2991  0312                     	;# 
  2992  0313                     	;# 
  2993  0314                     	;# 
  2994  0315                     	;# 
  2995  0315                     	;# 
  2996  0316                     	;# 
  2997  0317                     	;# 
  2998  0318                     	;# 
  2999  038C                     	;# 
  3000  038E                     	;# 
  3001  0391                     	;# 
  3002  0392                     	;# 
  3003  0393                     	;# 
  3004  0397                     	;# 
  3005  0398                     	;# 
  3006  0399                     	;# 
  3007  039A                     	;# 
  3008  039C                     	;# 
  3009  039D                     	;# 
  3010  039E                     	;# 
  3011  039F                     	;# 
  3012  0411                     	;# 
  3013  0411                     	;# 
  3014  0412                     	;# 
  3015  0413                     	;# 
  3016  0414                     	;# 
  3017  0415                     	;# 
  3018  0416                     	;# 
  3019  0417                     	;# 
  3020  0418                     	;# 
  3021  0418                     	;# 
  3022  0419                     	;# 
  3023  041A                     	;# 
  3024  041B                     	;# 
  3025  041C                     	;# 
  3026  041D                     	;# 
  3027  041E                     	;# 
  3028  041F                     	;# 
  3029  0498                     	;# 
  3030  0498                     	;# 
  3031  0499                     	;# 
  3032  049A                     	;# 
  3033  049B                     	;# 
  3034  049B                     	;# 
  3035  049C                     	;# 
  3036  049D                     	;# 
  3037  049E                     	;# 
  3038  049F                     	;# 
  3039  0617                     	;# 
  3040  0618                     	;# 
  3041  0619                     	;# 
  3042  0619                     	;# 
  3043  061A                     	;# 
  3044  061B                     	;# 
  3045  061C                     	;# 
  3046  061C                     	;# 
  3047  061F                     	;# 
  3048  0691                     	;# 
  3049  0692                     	;# 
  3050  0693                     	;# 
  3051  0694                     	;# 
  3052  0695                     	;# 
  3053  0696                     	;# 
  3054  0697                     	;# 
  3055  0698                     	;# 
  3056  0699                     	;# 
  3057  0711                     	;# 
  3058  0712                     	;# 
  3059  0713                     	;# 
  3060  0714                     	;# 
  3061  0715                     	;# 
  3062  0716                     	;# 
  3063  0717                     	;# 
  3064  0718                     	;# 
  3065  0719                     	;# 
  3066  0891                     	;# 
  3067  0891                     	;# 
  3068  0891                     	;# 
  3069  0891                     	;# 
  3070  0891                     	;# 
  3071  0891                     	;# 
  3072  0892                     	;# 
  3073  0892                     	;# 
  3074  0892                     	;# 
  3075  0893                     	;# 
  3076  0893                     	;# 
  3077  0893                     	;# 
  3078  0893                     	;# 
  3079  0893                     	;# 
  3080  0893                     	;# 
  3081  0894                     	;# 
  3082  0894                     	;# 
  3083  0894                     	;# 
  3084  0895                     	;# 
  3085  0895                     	;# 
  3086  0895                     	;# 
  3087  0896                     	;# 
  3088  0896                     	;# 
  3089  0896                     	;# 
  3090  089B                     	;# 
  3091  0911                     	;# 
  3092  0912                     	;# 
  3093  0913                     	;# 
  3094  0914                     	;# 
  3095  0915                     	;# 
  3096  0916                     	;# 
  3097  0918                     	;# 
  3098  0919                     	;# 
  3099  091A                     	;# 
  3100  091B                     	;# 
  3101  091C                     	;# 
  3102  091D                     	;# 
  3103  091E                     	;# 
  3104  091F                     	;# 
  3105  0E0F                     	;# 
  3106  0E10                     	;# 
  3107  0E11                     	;# 
  3108  0E12                     	;# 
  3109  0E13                     	;# 
  3110  0E14                     	;# 
  3111  0E15                     	;# 
  3112  0E16                     	;# 
  3113  0E17                     	;# 
  3114  0E18                     	;# 
  3115  0E19                     	;# 
  3116  0E1A                     	;# 
  3117  0E1B                     	;# 
  3118  0E1C                     	;# 
  3119  0E1D                     	;# 
  3120  0E1E                     	;# 
  3121  0E1F                     	;# 
  3122  0E20                     	;# 
  3123  0E21                     	;# 
  3124  0E22                     	;# 
  3125  0E24                     	;# 
  3126  0E25                     	;# 
  3127  0E28                     	;# 
  3128  0E29                     	;# 
  3129  0E2A                     	;# 
  3130  0E2B                     	;# 
  3131  0E2C                     	;# 
  3132  0E2D                     	;# 
  3133  0E2E                     	;# 
  3134  0E2F                     	;# 
  3135  0E90                     	;# 
  3136  0E91                     	;# 
  3137  0E92                     	;# 
  3138  0E94                     	;# 
  3139  0E95                     	;# 
  3140  0EA0                     	;# 
  3141  0EA1                     	;# 
  3142  0EA2                     	;# 
  3143  0EA3                     	;# 
  3144  0EA4                     	;# 
  3145  0EA5                     	;# 
  3146  0F0F                     	;# 
  3147  0F10                     	;# 
  3148  0F11                     	;# 
  3149  0F12                     	;# 
  3150  0F13                     	;# 
  3151  0F14                     	;# 
  3152  0F15                     	;# 
  3153  0F16                     	;# 
  3154  0F17                     	;# 
  3155  0F18                     	;# 
  3156  0F19                     	;# 
  3157  0F1A                     	;# 
  3158  0F1B                     	;# 
  3159  0F1C                     	;# 
  3160  0F1D                     	;# 
  3161  0F1E                     	;# 
  3162  0F1F                     	;# 
  3163  0F20                     	;# 
  3164  0F21                     	;# 
  3165  0F22                     	;# 
  3166  0F23                     	;# 
  3167  0F24                     	;# 
  3168  0F25                     	;# 
  3169  0F26                     	;# 
  3170  0F27                     	;# 
  3171  0F28                     	;# 
  3172  0F29                     	;# 
  3173  0F2A                     	;# 
  3174  0F2B                     	;# 
  3175  0F2C                     	;# 
  3176  0F2D                     	;# 
  3177  0F2E                     	;# 
  3178  0F2F                     	;# 
  3179  0F30                     	;# 
  3180  0F31                     	;# 
  3181  0F32                     	;# 
  3182  0F33                     	;# 
  3183  0F34                     	;# 
  3184  0F35                     	;# 
  3185  0F36                     	;# 
  3186  0F37                     	;# 
  3187  0FE4                     	;# 
  3188  0FE5                     	;# 
  3189  0FE6                     	;# 
  3190  0FE7                     	;# 
  3191  0FE8                     	;# 
  3192  0FE9                     	;# 
  3193  0FEA                     	;# 
  3194  0FEB                     	;# 
  3195  0FED                     	;# 
  3196  0FEE                     	;# 
  3197  0FEF                     	;# 
  3198  0000                     	;# 
  3199  0001                     	;# 
  3200  0002                     	;# 
  3201  0003                     	;# 
  3202  0004                     	;# 
  3203  0005                     	;# 
  3204  0006                     	;# 
  3205  0007                     	;# 
  3206  0008                     	;# 
  3207  0009                     	;# 
  3208  000A                     	;# 
  3209  000B                     	;# 
  3210  000C                     	;# 
  3211  000E                     	;# 
  3212  0010                     	;# 
  3213  0011                     	;# 
  3214  0012                     	;# 
  3215  0013                     	;# 
  3216  0014                     	;# 
  3217  0015                     	;# 
  3218  0015                     	;# 
  3219  0016                     	;# 
  3220  0016                     	;# 
  3221  0017                     	;# 
  3222  0018                     	;# 
  3223  0019                     	;# 
  3224  0019                     	;# 
  3225  001A                     	;# 
  3226  001B                     	;# 
  3227  001C                     	;# 
  3228  001D                     	;# 
  3229  001E                     	;# 
  3230  001F                     	;# 
  3231  008C                     	;# 
  3232  008E                     	;# 
  3233  0090                     	;# 
  3234  0091                     	;# 
  3235  0092                     	;# 
  3236  0093                     	;# 
  3237  0094                     	;# 
  3238  0097                     	;# 
  3239  009B                     	;# 
  3240  009B                     	;# 
  3241  009C                     	;# 
  3242  009D                     	;# 
  3243  009E                     	;# 
  3244  009F                     	;# 
  3245  010C                     	;# 
  3246  010E                     	;# 
  3247  0111                     	;# 
  3248  0112                     	;# 
  3249  0113                     	;# 
  3250  0114                     	;# 
  3251  0115                     	;# 
  3252  0116                     	;# 
  3253  0117                     	;# 
  3254  0118                     	;# 
  3255  0119                     	;# 
  3256  018C                     	;# 
  3257  018E                     	;# 
  3258  0197                     	;# 
  3259  0199                     	;# 
  3260  0199                     	;# 
  3261  0199                     	;# 
  3262  019A                     	;# 
  3263  019A                     	;# 
  3264  019A                     	;# 
  3265  019B                     	;# 
  3266  019B                     	;# 
  3267  019B                     	;# 
  3268  019B                     	;# 
  3269  019B                     	;# 
  3270  019C                     	;# 
  3271  019C                     	;# 
  3272  019C                     	;# 
  3273  019D                     	;# 
  3274  019D                     	;# 
  3275  019D                     	;# 
  3276  019E                     	;# 
  3277  019E                     	;# 
  3278  019E                     	;# 
  3279  019F                     	;# 
  3280  019F                     	;# 
  3281  019F                     	;# 
  3282  019F                     	;# 
  3283  019F                     	;# 
  3284  020C                     	;# 
  3285  020E                     	;# 
  3286  0211                     	;# 
  3287  0211                     	;# 
  3288  0212                     	;# 
  3289  0212                     	;# 
  3290  0213                     	;# 
  3291  0213                     	;# 
  3292  0214                     	;# 
  3293  0214                     	;# 
  3294  0215                     	;# 
  3295  0215                     	;# 
  3296  0215                     	;# 
  3297  0215                     	;# 
  3298  0216                     	;# 
  3299  0216                     	;# 
  3300  0217                     	;# 
  3301  0217                     	;# 
  3302  0219                     	;# 
  3303  021A                     	;# 
  3304  021B                     	;# 
  3305  021C                     	;# 
  3306  021D                     	;# 
  3307  021D                     	;# 
  3308  021E                     	;# 
  3309  021F                     	;# 
  3310  028C                     	;# 
  3311  028E                     	;# 
  3312  0291                     	;# 
  3313  0291                     	;# 
  3314  0292                     	;# 
  3315  0293                     	;# 
  3316  0294                     	;# 
  3317  0295                     	;# 
  3318  0295                     	;# 
  3319  0296                     	;# 
  3320  0297                     	;# 
  3321  0298                     	;# 
  3322  029F                     	;# 
  3323  030C                     	;# 
  3324  030E                     	;# 
  3325  0311                     	;# 
  3326  0311                     	;# 
  3327  0312                     	;# 
  3328  0313                     	;# 
  3329  0314                     	;# 
  3330  0315                     	;# 
  3331  0315                     	;# 
  3332  0316                     	;# 
  3333  0317                     	;# 
  3334  0318                     	;# 
  3335  038C                     	;# 
  3336  038E                     	;# 
  3337  0391                     	;# 
  3338  0392                     	;# 
  3339  0393                     	;# 
  3340  0397                     	;# 
  3341  0398                     	;# 
  3342  0399                     	;# 
  3343  039A                     	;# 
  3344  039C                     	;# 
  3345  039D                     	;# 
  3346  039E                     	;# 
  3347  039F                     	;# 
  3348  0411                     	;# 
  3349  0411                     	;# 
  3350  0412                     	;# 
  3351  0413                     	;# 
  3352  0414                     	;# 
  3353  0415                     	;# 
  3354  0416                     	;# 
  3355  0417                     	;# 
  3356  0418                     	;# 
  3357  0418                     	;# 
  3358  0419                     	;# 
  3359  041A                     	;# 
  3360  041B                     	;# 
  3361  041C                     	;# 
  3362  041D                     	;# 
  3363  041E                     	;# 
  3364  041F                     	;# 
  3365  0498                     	;# 
  3366  0498                     	;# 
  3367  0499                     	;# 
  3368  049A                     	;# 
  3369  049B                     	;# 
  3370  049B                     	;# 
  3371  049C                     	;# 
  3372  049D                     	;# 
  3373  049E                     	;# 
  3374  049F                     	;# 
  3375  0617                     	;# 
  3376  0618                     	;# 
  3377  0619                     	;# 
  3378  0619                     	;# 
  3379  061A                     	;# 
  3380  061B                     	;# 
  3381  061C                     	;# 
  3382  061C                     	;# 
  3383  061F                     	;# 
  3384  0691                     	;# 
  3385  0692                     	;# 
  3386  0693                     	;# 
  3387  0694                     	;# 
  3388  0695                     	;# 
  3389  0696                     	;# 
  3390  0697                     	;# 
  3391  0698                     	;# 
  3392  0699                     	;# 
  3393  0711                     	;# 
  3394  0712                     	;# 
  3395  0713                     	;# 
  3396  0714                     	;# 
  3397  0715                     	;# 
  3398  0716                     	;# 
  3399  0717                     	;# 
  3400  0718                     	;# 
  3401  0719                     	;# 
  3402  0891                     	;# 
  3403  0891                     	;# 
  3404  0891                     	;# 
  3405  0891                     	;# 
  3406  0891                     	;# 
  3407  0891                     	;# 
  3408  0892                     	;# 
  3409  0892                     	;# 
  3410  0892                     	;# 
  3411  0893                     	;# 
  3412  0893                     	;# 
  3413  0893                     	;# 
  3414  0893                     	;# 
  3415  0893                     	;# 
  3416  0893                     	;# 
  3417  0894                     	;# 
  3418  0894                     	;# 
  3419  0894                     	;# 
  3420  0895                     	;# 
  3421  0895                     	;# 
  3422  0895                     	;# 
  3423  0896                     	;# 
  3424  0896                     	;# 
  3425  0896                     	;# 
  3426  089B                     	;# 
  3427  0911                     	;# 
  3428  0912                     	;# 
  3429  0913                     	;# 
  3430  0914                     	;# 
  3431  0915                     	;# 
  3432  0916                     	;# 
  3433  0918                     	;# 
  3434  0919                     	;# 
  3435  091A                     	;# 
  3436  091B                     	;# 
  3437  091C                     	;# 
  3438  091D                     	;# 
  3439  091E                     	;# 
  3440  091F                     	;# 
  3441  0E0F                     	;# 
  3442  0E10                     	;# 
  3443  0E11                     	;# 
  3444  0E12                     	;# 
  3445  0E13                     	;# 
  3446  0E14                     	;# 
  3447  0E15                     	;# 
  3448  0E16                     	;# 
  3449  0E17                     	;# 
  3450  0E18                     	;# 
  3451  0E19                     	;# 
  3452  0E1A                     	;# 
  3453  0E1B                     	;# 
  3454  0E1C                     	;# 
  3455  0E1D                     	;# 
  3456  0E1E                     	;# 
  3457  0E1F                     	;# 
  3458  0E20                     	;# 
  3459  0E21                     	;# 
  3460  0E22                     	;# 
  3461  0E24                     	;# 
  3462  0E25                     	;# 
  3463  0E28                     	;# 
  3464  0E29                     	;# 
  3465  0E2A                     	;# 
  3466  0E2B                     	;# 
  3467  0E2C                     	;# 
  3468  0E2D                     	;# 
  3469  0E2E                     	;# 
  3470  0E2F                     	;# 
  3471  0E90                     	;# 
  3472  0E91                     	;# 
  3473  0E92                     	;# 
  3474  0E94                     	;# 
  3475  0E95                     	;# 
  3476  0EA0                     	;# 
  3477  0EA1                     	;# 
  3478  0EA2                     	;# 
  3479  0EA3                     	;# 
  3480  0EA4                     	;# 
  3481  0EA5                     	;# 
  3482  0F0F                     	;# 
  3483  0F10                     	;# 
  3484  0F11                     	;# 
  3485  0F12                     	;# 
  3486  0F13                     	;# 
  3487  0F14                     	;# 
  3488  0F15                     	;# 
  3489  0F16                     	;# 
  3490  0F17                     	;# 
  3491  0F18                     	;# 
  3492  0F19                     	;# 
  3493  0F1A                     	;# 
  3494  0F1B                     	;# 
  3495  0F1C                     	;# 
  3496  0F1D                     	;# 
  3497  0F1E                     	;# 
  3498  0F1F                     	;# 
  3499  0F20                     	;# 
  3500  0F21                     	;# 
  3501  0F22                     	;# 
  3502  0F23                     	;# 
  3503  0F24                     	;# 
  3504  0F25                     	;# 
  3505  0F26                     	;# 
  3506  0F27                     	;# 
  3507  0F28                     	;# 
  3508  0F29                     	;# 
  3509  0F2A                     	;# 
  3510  0F2B                     	;# 
  3511  0F2C                     	;# 
  3512  0F2D                     	;# 
  3513  0F2E                     	;# 
  3514  0F2F                     	;# 
  3515  0F30                     	;# 
  3516  0F31                     	;# 
  3517  0F32                     	;# 
  3518  0F33                     	;# 
  3519  0F34                     	;# 
  3520  0F35                     	;# 
  3521  0F36                     	;# 
  3522  0F37                     	;# 
  3523  0FE4                     	;# 
  3524  0FE5                     	;# 
  3525  0FE6                     	;# 
  3526  0FE7                     	;# 
  3527  0FE8                     	;# 
  3528  0FE9                     	;# 
  3529  0FEA                     	;# 
  3530  0FEB                     	;# 
  3531  0FED                     	;# 
  3532  0FEE                     	;# 
  3533  0FEF                     	;# 
  3534  0000                     	;# 
  3535  0001                     	;# 
  3536  0002                     	;# 
  3537  0003                     	;# 
  3538  0004                     	;# 
  3539  0005                     	;# 
  3540  0006                     	;# 
  3541  0007                     	;# 
  3542  0008                     	;# 
  3543  0009                     	;# 
  3544  000A                     	;# 
  3545  000B                     	;# 
  3546  000C                     	;# 
  3547  000E                     	;# 
  3548  0010                     	;# 
  3549  0011                     	;# 
  3550  0012                     	;# 
  3551  0013                     	;# 
  3552  0014                     	;# 
  3553  0015                     	;# 
  3554  0015                     	;# 
  3555  0016                     	;# 
  3556  0016                     	;# 
  3557  0017                     	;# 
  3558  0018                     	;# 
  3559  0019                     	;# 
  3560  0019                     	;# 
  3561  001A                     	;# 
  3562  001B                     	;# 
  3563  001C                     	;# 
  3564  001D                     	;# 
  3565  001E                     	;# 
  3566  001F                     	;# 
  3567  008C                     	;# 
  3568  008E                     	;# 
  3569  0090                     	;# 
  3570  0091                     	;# 
  3571  0092                     	;# 
  3572  0093                     	;# 
  3573  0094                     	;# 
  3574  0097                     	;# 
  3575  009B                     	;# 
  3576  009B                     	;# 
  3577  009C                     	;# 
  3578  009D                     	;# 
  3579  009E                     	;# 
  3580  009F                     	;# 
  3581  010C                     	;# 
  3582  010E                     	;# 
  3583  0111                     	;# 
  3584  0112                     	;# 
  3585  0113                     	;# 
  3586  0114                     	;# 
  3587  0115                     	;# 
  3588  0116                     	;# 
  3589  0117                     	;# 
  3590  0118                     	;# 
  3591  0119                     	;# 
  3592  018C                     	;# 
  3593  018E                     	;# 
  3594  0197                     	;# 
  3595  0199                     	;# 
  3596  0199                     	;# 
  3597  0199                     	;# 
  3598  019A                     	;# 
  3599  019A                     	;# 
  3600  019A                     	;# 
  3601  019B                     	;# 
  3602  019B                     	;# 
  3603  019B                     	;# 
  3604  019B                     	;# 
  3605  019B                     	;# 
  3606  019C                     	;# 
  3607  019C                     	;# 
  3608  019C                     	;# 
  3609  019D                     	;# 
  3610  019D                     	;# 
  3611  019D                     	;# 
  3612  019E                     	;# 
  3613  019E                     	;# 
  3614  019E                     	;# 
  3615  019F                     	;# 
  3616  019F                     	;# 
  3617  019F                     	;# 
  3618  019F                     	;# 
  3619  019F                     	;# 
  3620  020C                     	;# 
  3621  020E                     	;# 
  3622  0211                     	;# 
  3623  0211                     	;# 
  3624  0212                     	;# 
  3625  0212                     	;# 
  3626  0213                     	;# 
  3627  0213                     	;# 
  3628  0214                     	;# 
  3629  0214                     	;# 
  3630  0215                     	;# 
  3631  0215                     	;# 
  3632  0215                     	;# 
  3633  0215                     	;# 
  3634  0216                     	;# 
  3635  0216                     	;# 
  3636  0217                     	;# 
  3637  0217                     	;# 
  3638  0219                     	;# 
  3639  021A                     	;# 
  3640  021B                     	;# 
  3641  021C                     	;# 
  3642  021D                     	;# 
  3643  021D                     	;# 
  3644  021E                     	;# 
  3645  021F                     	;# 
  3646  028C                     	;# 
  3647  028E                     	;# 
  3648  0291                     	;# 
  3649  0291                     	;# 
  3650  0292                     	;# 
  3651  0293                     	;# 
  3652  0294                     	;# 
  3653  0295                     	;# 
  3654  0295                     	;# 
  3655  0296                     	;# 
  3656  0297                     	;# 
  3657  0298                     	;# 
  3658  029F                     	;# 
  3659  030C                     	;# 
  3660  030E                     	;# 
  3661  0311                     	;# 
  3662  0311                     	;# 
  3663  0312                     	;# 
  3664  0313                     	;# 
  3665  0314                     	;# 
  3666  0315                     	;# 
  3667  0315                     	;# 
  3668  0316                     	;# 
  3669  0317                     	;# 
  3670  0318                     	;# 
  3671  038C                     	;# 
  3672  038E                     	;# 
  3673  0391                     	;# 
  3674  0392                     	;# 
  3675  0393                     	;# 
  3676  0397                     	;# 
  3677  0398                     	;# 
  3678  0399                     	;# 
  3679  039A                     	;# 
  3680  039C                     	;# 
  3681  039D                     	;# 
  3682  039E                     	;# 
  3683  039F                     	;# 
  3684  0411                     	;# 
  3685  0411                     	;# 
  3686  0412                     	;# 
  3687  0413                     	;# 
  3688  0414                     	;# 
  3689  0415                     	;# 
  3690  0416                     	;# 
  3691  0417                     	;# 
  3692  0418                     	;# 
  3693  0418                     	;# 
  3694  0419                     	;# 
  3695  041A                     	;# 
  3696  041B                     	;# 
  3697  041C                     	;# 
  3698  041D                     	;# 
  3699  041E                     	;# 
  3700  041F                     	;# 
  3701  0498                     	;# 
  3702  0498                     	;# 
  3703  0499                     	;# 
  3704  049A                     	;# 
  3705  049B                     	;# 
  3706  049B                     	;# 
  3707  049C                     	;# 
  3708  049D                     	;# 
  3709  049E                     	;# 
  3710  049F                     	;# 
  3711  0617                     	;# 
  3712  0618                     	;# 
  3713  0619                     	;# 
  3714  0619                     	;# 
  3715  061A                     	;# 
  3716  061B                     	;# 
  3717  061C                     	;# 
  3718  061C                     	;# 
  3719  061F                     	;# 
  3720  0691                     	;# 
  3721  0692                     	;# 
  3722  0693                     	;# 
  3723  0694                     	;# 
  3724  0695                     	;# 
  3725  0696                     	;# 
  3726  0697                     	;# 
  3727  0698                     	;# 
  3728  0699                     	;# 
  3729  0711                     	;# 
  3730  0712                     	;# 
  3731  0713                     	;# 
  3732  0714                     	;# 
  3733  0715                     	;# 
  3734  0716                     	;# 
  3735  0717                     	;# 
  3736  0718                     	;# 
  3737  0719                     	;# 
  3738  0891                     	;# 
  3739  0891                     	;# 
  3740  0891                     	;# 
  3741  0891                     	;# 
  3742  0891                     	;# 
  3743  0891                     	;# 
  3744  0892                     	;# 
  3745  0892                     	;# 
  3746  0892                     	;# 
  3747  0893                     	;# 
  3748  0893                     	;# 
  3749  0893                     	;# 
  3750  0893                     	;# 
  3751  0893                     	;# 
  3752  0893                     	;# 
  3753  0894                     	;# 
  3754  0894                     	;# 
  3755  0894                     	;# 
  3756  0895                     	;# 
  3757  0895                     	;# 
  3758  0895                     	;# 
  3759  0896                     	;# 
  3760  0896                     	;# 
  3761  0896                     	;# 
  3762  089B                     	;# 
  3763  0911                     	;# 
  3764  0912                     	;# 
  3765  0913                     	;# 
  3766  0914                     	;# 
  3767  0915                     	;# 
  3768  0916                     	;# 
  3769  0918                     	;# 
  3770  0919                     	;# 
  3771  091A                     	;# 
  3772  091B                     	;# 
  3773  091C                     	;# 
  3774  091D                     	;# 
  3775  091E                     	;# 
  3776  091F                     	;# 
  3777  0E0F                     	;# 
  3778  0E10                     	;# 
  3779  0E11                     	;# 
  3780  0E12                     	;# 
  3781  0E13                     	;# 
  3782  0E14                     	;# 
  3783  0E15                     	;# 
  3784  0E16                     	;# 
  3785  0E17                     	;# 
  3786  0E18                     	;# 
  3787  0E19                     	;# 
  3788  0E1A                     	;# 
  3789  0E1B                     	;# 
  3790  0E1C                     	;# 
  3791  0E1D                     	;# 
  3792  0E1E                     	;# 
  3793  0E1F                     	;# 
  3794  0E20                     	;# 
  3795  0E21                     	;# 
  3796  0E22                     	;# 
  3797  0E24                     	;# 
  3798  0E25                     	;# 
  3799  0E28                     	;# 
  3800  0E29                     	;# 
  3801  0E2A                     	;# 
  3802  0E2B                     	;# 
  3803  0E2C                     	;# 
  3804  0E2D                     	;# 
  3805  0E2E                     	;# 
  3806  0E2F                     	;# 
  3807  0E90                     	;# 
  3808  0E91                     	;# 
  3809  0E92                     	;# 
  3810  0E94                     	;# 
  3811  0E95                     	;# 
  3812  0EA0                     	;# 
  3813  0EA1                     	;# 
  3814  0EA2                     	;# 
  3815  0EA3                     	;# 
  3816  0EA4                     	;# 
  3817  0EA5                     	;# 
  3818  0F0F                     	;# 
  3819  0F10                     	;# 
  3820  0F11                     	;# 
  3821  0F12                     	;# 
  3822  0F13                     	;# 
  3823  0F14                     	;# 
  3824  0F15                     	;# 
  3825  0F16                     	;# 
  3826  0F17                     	;# 
  3827  0F18                     	;# 
  3828  0F19                     	;# 
  3829  0F1A                     	;# 
  3830  0F1B                     	;# 
  3831  0F1C                     	;# 
  3832  0F1D                     	;# 
  3833  0F1E                     	;# 
  3834  0F1F                     	;# 
  3835  0F20                     	;# 
  3836  0F21                     	;# 
  3837  0F22                     	;# 
  3838  0F23                     	;# 
  3839  0F24                     	;# 
  3840  0F25                     	;# 
  3841  0F26                     	;# 
  3842  0F27                     	;# 
  3843  0F28                     	;# 
  3844  0F29                     	;# 
  3845  0F2A                     	;# 
  3846  0F2B                     	;# 
  3847  0F2C                     	;# 
  3848  0F2D                     	;# 
  3849  0F2E                     	;# 
  3850  0F2F                     	;# 
  3851  0F30                     	;# 
  3852  0F31                     	;# 
  3853  0F32                     	;# 
  3854  0F33                     	;# 
  3855  0F34                     	;# 
  3856  0F35                     	;# 
  3857  0F36                     	;# 
  3858  0F37                     	;# 
  3859  0FE4                     	;# 
  3860  0FE5                     	;# 
  3861  0FE6                     	;# 
  3862  0FE7                     	;# 
  3863  0FE8                     	;# 
  3864  0FE9                     	;# 
  3865  0FEA                     	;# 
  3866  0FEB                     	;# 
  3867  0FED                     	;# 
  3868  0FEE                     	;# 
  3869  0FEF                     	;# 
  3870                           
  3871                           	psect	idataBANK1
  3872  171A                     __pidataBANK1:
  3873                           
  3874                           ;initializer for _ERROR_DIST
  3875  171A  3432               	retlw	50
  3876  171B  3400               	retlw	0
  3877                           
  3878                           ;initializer for _TARGET_DIST
  3879  171C  34FA               	retlw	250
  3880  171D  3400               	retlw	0
  3881                           
  3882                           	psect	stringtext1
  3883  1000                     __pstringtext1:
  3884  1000                     _i2c1_fsmStateTable:
  3885  1000  3423               	retlw	low _I2C1_DO_IDLE
  3886  1001  3417               	retlw	high _I2C1_DO_IDLE
  3887  1002  34A7               	retlw	low _I2C1_DO_SEND_ADR_READ
  3888  1003  3417               	retlw	high _I2C1_DO_SEND_ADR_READ
  3889  1004  3484               	retlw	low _I2C1_DO_SEND_ADR_WRITE
  3890  1005  3417               	retlw	high _I2C1_DO_SEND_ADR_WRITE
  3891  1006  3497               	retlw	low _I2C1_DO_TX
  3892  1007  340E               	retlw	high _I2C1_DO_TX
  3893  1008  34C6               	retlw	low _I2C1_DO_RX
  3894  1009  340C               	retlw	high _I2C1_DO_RX
  3895  100A  346D               	retlw	low _I2C1_DO_RCEN
  3896  100B  3417               	retlw	high _I2C1_DO_RCEN
  3897  100C  34D9               	retlw	low _I2C1_DO_TX_EMPTY
  3898  100D  340A               	retlw	high _I2C1_DO_TX_EMPTY
  3899  100E  3428               	retlw	low _I2C1_DO_SEND_RESTART_READ
  3900  100F  3417               	retlw	high _I2C1_DO_SEND_RESTART_READ
  3901  1010  342D               	retlw	low _I2C1_DO_SEND_RESTART_WRITE
  3902  1011  3417               	retlw	high _I2C1_DO_SEND_RESTART_WRITE
  3903  1012  3432               	retlw	low _I2C1_DO_SEND_RESTART
  3904  1013  3417               	retlw	high _I2C1_DO_SEND_RESTART
  3905  1014  3437               	retlw	low _I2C1_DO_SEND_STOP
  3906  1015  3417               	retlw	high _I2C1_DO_SEND_STOP
  3907  1016  343C               	retlw	low _I2C1_DO_RX_ACK
  3908  1017  3417               	retlw	high _I2C1_DO_RX_ACK
  3909  1018  3441               	retlw	low _I2C1_DO_RX_NACK_STOP
  3910  1019  3417               	retlw	high _I2C1_DO_RX_NACK_STOP
  3911  101A  3446               	retlw	low _I2C1_DO_RX_NACK_RESTART
  3912  101B  3417               	retlw	high _I2C1_DO_RX_NACK_RESTART
  3913  101C  344B               	retlw	low _I2C1_DO_RESET
  3914  101D  3417               	retlw	high _I2C1_DO_RESET
  3915  101E  34AB               	retlw	low _I2C1_DO_ADDRESS_NACK
  3916  101F  340A               	retlw	high _I2C1_DO_ADDRESS_NACK
  3917  1020                     __end_of_i2c1_fsmStateTable:
  3918                           
  3919                           	psect	stringtext2
  3920  182F                     __pstringtext2:
  3921  182F                     _TimingGuard@vl53l1x$F1861:
  3922  182F  34B0               	retlw	176
  3923  1830  3411               	retlw	17
  3924  1831  3400               	retlw	0
  3925  1832  3400               	retlw	0
  3926  1833                     __end_of_TimingGuard@vl53l1x$F1861:
  3927                           
  3928                           	psect	stringtext3
  3929  1833                     __pstringtext3:
  3930  1833                     _TimingGuard@vl53l1x$F1677:
  3931  1833  34B0               	retlw	176
  3932  1834  3411               	retlw	17
  3933  1835  3400               	retlw	0
  3934  1836  3400               	retlw	0
  3935  1837                     __end_of_TimingGuard@vl53l1x$F1677:
  3936                           
  3937                           	psect	stringtext4
  3938  1837                     __pstringtext4:
  3939  1837                     _TimingGuard:
  3940  1837  34B0               	retlw	176
  3941  1838  3411               	retlw	17
  3942  1839  3400               	retlw	0
  3943  183A  3400               	retlw	0
  3944  183B                     __end_of_TimingGuard:
  3945                           
  3946                           	psect	stringtext5
  3947  183B                     __pstringtext5:
  3948  183B                     _TargetRate@vl53l1x$F1862:
  3949  183B  3400               	retlw	0
  3950  183C  340A               	retlw	10
  3951  183D                     __end_of_TargetRate@vl53l1x$F1862:
  3952                           
  3953                           	psect	stringtext6
  3954  183D                     __pstringtext6:
  3955  183D                     _TargetRate:
  3956  183D  3400               	retlw	0
  3957  183E  340A               	retlw	10
  3958  183F                     __end_of_TargetRate:
  3959                           
  3960                           	psect	stringtext7
  3961  183F                     __pstringtext7:
  3962  183F                     _TargetRate@vl53l1x$F1678:
  3963  183F  3400               	retlw	0
  3964  1840  340A               	retlw	10
  3965  1841                     __end_of_TargetRate@vl53l1x$F1678:
  3966                           
  3967                           	psect	nvCOMMON
  3968  007A                     __pnvCOMMON:
  3969  007A                     _address:
  3970  007A                     	ds	1
  3971                           
  3972                           	psect	nvBANK1
  3973  00D9                     __pnvBANK1:
  3974  00D9                     _iid:
  3975  00D9                     	ds	2
  3976  00DB                     _IOCCF4_InterruptHandler:
  3977  00DB                     	ds	2
  3978  001F                     _T2CONbits	set	31
  3979  001F                     _T2CON	set	31
  3980  001D                     _TMR2	set	29
  3981  001E                     _PR2	set	30
  3982  0010                     _PIR0bits	set	16
  3983  0011                     _PIR1bits	set	17
  3984  000B                     _INTCONbits	set	11
  3985  0091                     _PIE1bits	set	145
  3986  0090                     _PIE0bits	set	144
  3987  008E                     _TRISC	set	142
  3988  008C                     _TRISA	set	140
  3989  0097                     _WDTCON	set	151
  3990  010E                     _LATCbits	set	270
  3991  010E                     _LATC	set	270
  3992  010C                     _LATA	set	268
  3993  018C                     _ANSELA	set	396
  3994  018E                     _ANSELC	set	398
  3995  0214                     _SSP1STATbits	set	532
  3996  0216                     _SSP1CON2bits	set	534
  3997  0211                     _SSP1BUF	set	529
  3998  0215                     _SSP1CON1bits	set	533
  3999  0212                     _SSP1ADD	set	530
  4000  0216                     _SSP1CON2	set	534
  4001  0215                     _SSP1CON1	set	533
  4002  0214                     _SSP1STAT	set	532
  4003  020E                     _WPUC	set	526
  4004  020C                     _WPUA	set	524
  4005  028E                     _ODCONC	set	654
  4006  028C                     _ODCONA	set	652
  4007  030E                     _SLRCONC	set	782
  4008  030C                     _SLRCONA	set	780
  4009  0397                     _IOCCPbits	set	919
  4010  0398                     _IOCCNbits	set	920
  4011  0399                     _IOCCFbits	set	921
  4012  038E                     _INLVLC	set	910
  4013  038C                     _INLVLA	set	908
  4014  0617                     _PWM5DCL	set	1559
  4015  0618                     _PWM5DCH	set	1560
  4016  0619                     _PWM5CON	set	1561
  4017  061F                     _PWMTMRSbits	set	1567
  4018  061A                     _PWM6DCL	set	1562
  4019  061B                     _PWM6DCH	set	1563
  4020  061C                     _PWM6CON	set	1564
  4021  0916                     _PMD5	set	2326
  4022  0915                     _PMD4	set	2325
  4023  0914                     _PMD3	set	2324
  4024  0913                     _PMD2	set	2323
  4025  0912                     _PMD1	set	2322
  4026  0911                     _PMD0	set	2321
  4027  091E                     _OSCTUNE	set	2334
  4028  091F                     _OSCFRQ	set	2335
  4029  091D                     _OSCEN	set	2333
  4030  091B                     _OSCCON3	set	2331
  4031  0919                     _OSCCON1	set	2329
  4032  0E21                     _SSP1DATPPS	set	3617
  4033  0E20                     _SSP1CLKPPS	set	3616
  4034  0EA5                     _RC5PPS	set	3749
  4035  0EA1                     _RC1PPS	set	3745
  4036  0E94                     _RA4PPS	set	3732
  4037  0EA0                     _RC0PPS	set	3744
  4038                           
  4039                           	psect	stringtext8
  4040  1020                     __pstringtext8:
  4041  1020                     STR_7:
  4042  1020  3472               	retlw	114	;'r'
  4043  1021  3461               	retlw	97	;'a'
  4044  1022  346E               	retlw	110	;'n'
  4045  1023  3467               	retlw	103	;'g'
  4046  1024  3465               	retlw	101	;'e'
  4047  1025  3420               	retlw	32	;' '
  4048  1026  3476               	retlw	118	;'v'
  4049  1027  3461               	retlw	97	;'a'
  4050  1028  346C               	retlw	108	;'l'
  4051  1029  3469               	retlw	105	;'i'
  4052  102A  3464               	retlw	100	;'d'
  4053  102B  342C               	retlw	44	;','
  4054  102C  3420               	retlw	32	;' '
  4055  102D  346E               	retlw	110	;'n'
  4056  102E  346F               	retlw	111	;'o'
  4057  102F  3420               	retlw	32	;' '
  4058  1030  3477               	retlw	119	;'w'
  4059  1031  3472               	retlw	114	;'r'
  4060  1032  3461               	retlw	97	;'a'
  4061  1033  3470               	retlw	112	;'p'
  4062  1034  3420               	retlw	32	;' '
  4063  1035  3463               	retlw	99	;'c'
  4064  1036  3468               	retlw	104	;'h'
  4065  1037  3465               	retlw	101	;'e'
  4066  1038  3463               	retlw	99	;'c'
  4067  1039  346B               	retlw	107	;'k'
  4068  103A  3420               	retlw	32	;' '
  4069  103B  3466               	retlw	102	;'f'
  4070  103C  3461               	retlw	97	;'a'
  4071  103D  3469               	retlw	105	;'i'
  4072  103E  346C               	retlw	108	;'l'
  4073  103F  3400               	retlw	0
  4074                           
  4075                           	psect	stringtext9
  4076  1040                     __pstringtext9:
  4077  1040                     STR_4:
  4078  1040  3472               	retlw	114	;'r'
  4079  1041  3461               	retlw	97	;'a'
  4080  1042  346E               	retlw	110	;'n'
  4081  1043  3467               	retlw	103	;'g'
  4082  1044  3465               	retlw	101	;'e'
  4083  1045  3420               	retlw	32	;' '
  4084  1046  3476               	retlw	118	;'v'
  4085  1047  3461               	retlw	97	;'a'
  4086  1048  346C               	retlw	108	;'l'
  4087  1049  3469               	retlw	105	;'i'
  4088  104A  3464               	retlw	100	;'d'
  4089  104B  342C               	retlw	44	;','
  4090  104C  3420               	retlw	32	;' '
  4091  104D  346D               	retlw	109	;'m'
  4092  104E  3469               	retlw	105	;'i'
  4093  104F  346E               	retlw	110	;'n'
  4094  1050  3420               	retlw	32	;' '
  4095  1051  3472               	retlw	114	;'r'
  4096  1052  3461               	retlw	97	;'a'
  4097  1053  346E               	retlw	110	;'n'
  4098  1054  3467               	retlw	103	;'g'
  4099  1055  3465               	retlw	101	;'e'
  4100  1056  3420               	retlw	32	;' '
  4101  1057  3463               	retlw	99	;'c'
  4102  1058  346C               	retlw	108	;'l'
  4103  1059  3469               	retlw	105	;'i'
  4104  105A  3470               	retlw	112	;'p'
  4105  105B  3470               	retlw	112	;'p'
  4106  105C  3465               	retlw	101	;'e'
  4107  105D  3464               	retlw	100	;'d'
  4108  105E  3400               	retlw	0
  4109                           
  4110                           	psect	stringtext10
  4111  105F                     __pstringtext10:
  4112  105F                     STR_10:
  4113  105F  3473               	retlw	115	;'s'
  4114  1060  3479               	retlw	121	;'y'
  4115  1061  346E               	retlw	110	;'n'
  4116  1062  3463               	retlw	99	;'c'
  4117  1063  3468               	retlw	104	;'h'
  4118  1064  3472               	retlw	114	;'r'
  4119  1065  346F               	retlw	111	;'o'
  4120  1066  346E               	retlw	110	;'n'
  4121  1067  3469               	retlw	105	;'i'
  4122  1068  347A               	retlw	122	;'z'
  4123  1069  3461               	retlw	97	;'a'
  4124  106A  3474               	retlw	116	;'t'
  4125  106B  3469               	retlw	105	;'i'
  4126  106C  346F               	retlw	111	;'o'
  4127  106D  346E               	retlw	110	;'n'
  4128  106E  3420               	retlw	32	;' '
  4129  106F  3469               	retlw	105	;'i'
  4130  1070  346E               	retlw	110	;'n'
  4131  1071  3474               	retlw	116	;'t'
  4132  1072  3400               	retlw	0
  4133                           
  4134                           	psect	stringtext11
  4135  1073                     __pstringtext11:
  4136  1073                     STR_5:
  4137  1073  346F               	retlw	111	;'o'
  4138  1074  3475               	retlw	117	;'u'
  4139  1075  3474               	retlw	116	;'t'
  4140  1076  3420               	retlw	32	;' '
  4141  1077  346F               	retlw	111	;'o'
  4142  1078  3466               	retlw	102	;'f'
  4143  1079  3420               	retlw	32	;' '
  4144  107A  3462               	retlw	98	;'b'
  4145  107B  346F               	retlw	111	;'o'
  4146  107C  3475               	retlw	117	;'u'
  4147  107D  346E               	retlw	110	;'n'
  4148  107E  3464               	retlw	100	;'d'
  4149  107F  3473               	retlw	115	;'s'
  4150  1080  3420               	retlw	32	;' '
  4151  1081  3466               	retlw	102	;'f'
  4152  1082  3461               	retlw	97	;'a'
  4153  1083  3469               	retlw	105	;'i'
  4154  1084  346C               	retlw	108	;'l'
  4155  1085  3400               	retlw	0
  4156                           
  4157                           	psect	stringtext12
  4158  1086                     __pstringtext12:
  4159  1086                     STR_9:
  4160  1086  3478               	retlw	120	;'x'
  4161  1087  3474               	retlw	116	;'t'
  4162  1088  3461               	retlw	97	;'a'
  4163  1089  346C               	retlw	108	;'l'
  4164  108A  346B               	retlw	107	;'k'
  4165  108B  3420               	retlw	32	;' '
  4166  108C  3473               	retlw	115	;'s'
  4167  108D  3469               	retlw	105	;'i'
  4168  108E  3467               	retlw	103	;'g'
  4169  108F  346E               	retlw	110	;'n'
  4170  1090  3461               	retlw	97	;'a'
  4171  1091  346C               	retlw	108	;'l'
  4172  1092  3420               	retlw	32	;' '
  4173  1093  3466               	retlw	102	;'f'
  4174  1094  3461               	retlw	97	;'a'
  4175  1095  3469               	retlw	105	;'i'
  4176  1096  346C               	retlw	108	;'l'
  4177  1097  3400               	retlw	0
  4178                           
  4179                           	psect	stringtext13
  4180  1098                     __pstringtext13:
  4181  1098                     STR_8:
  4182  1098  3477               	retlw	119	;'w'
  4183  1099  3472               	retlw	114	;'r'
  4184  109A  3461               	retlw	97	;'a'
  4185  109B  3470               	retlw	112	;'p'
  4186  109C  3420               	retlw	32	;' '
  4187  109D  3474               	retlw	116	;'t'
  4188  109E  3461               	retlw	97	;'a'
  4189  109F  3472               	retlw	114	;'r'
  4190  10A0  3467               	retlw	103	;'g'
  4191  10A1  3465               	retlw	101	;'e'
  4192  10A2  3474               	retlw	116	;'t'
  4193  10A3  3420               	retlw	32	;' '
  4194  10A4  3466               	retlw	102	;'f'
  4195  10A5  3461               	retlw	97	;'a'
  4196  10A6  3469               	retlw	105	;'i'
  4197  10A7  346C               	retlw	108	;'l'
  4198  10A8  3400               	retlw	0
  4199                           
  4200                           	psect	stringtext14
  4201  10A9                     __pstringtext14:
  4202  10A9                     STR_11:
  4203  10A9  346D               	retlw	109	;'m'
  4204  10AA  3469               	retlw	105	;'i'
  4205  10AB  346E               	retlw	110	;'n'
  4206  10AC  3420               	retlw	32	;' '
  4207  10AD  3472               	retlw	114	;'r'
  4208  10AE  3461               	retlw	97	;'a'
  4209  10AF  346E               	retlw	110	;'n'
  4210  10B0  3467               	retlw	103	;'g'
  4211  10B1  3465               	retlw	101	;'e'
  4212  10B2  3420               	retlw	32	;' '
  4213  10B3  3466               	retlw	102	;'f'
  4214  10B4  3461               	retlw	97	;'a'
  4215  10B5  3469               	retlw	105	;'i'
  4216  10B6  346C               	retlw	108	;'l'
  4217  10B7  3400               	retlw	0
  4218                           
  4219                           	psect	stringtext15
  4220  10B8                     __pstringtext15:
  4221  10B8                     STR_13:
  4222  10B8  3475               	retlw	117	;'u'
  4223  10B9  346E               	retlw	110	;'n'
  4224  10BA  346B               	retlw	107	;'k'
  4225  10BB  346E               	retlw	110	;'n'
  4226  10BC  346F               	retlw	111	;'o'
  4227  10BD  3477               	retlw	119	;'w'
  4228  10BE  346E               	retlw	110	;'n'
  4229  10BF  3420               	retlw	32	;' '
  4230  10C0  3473               	retlw	115	;'s'
  4231  10C1  3474               	retlw	116	;'t'
  4232  10C2  3461               	retlw	97	;'a'
  4233  10C3  3474               	retlw	116	;'t'
  4234  10C4  3475               	retlw	117	;'u'
  4235  10C5  3473               	retlw	115	;'s'
  4236  10C6  3400               	retlw	0
  4237                           
  4238                           	psect	stringtext16
  4239  1800                     __pstringtext16:
  4240  1800                     STR_6:
  4241  1800  3468               	retlw	104	;'h'
  4242  1801  3461               	retlw	97	;'a'
  4243  1802  3472               	retlw	114	;'r'
  4244  1803  3464               	retlw	100	;'d'
  4245  1804  3477               	retlw	119	;'w'
  4246  1805  3461               	retlw	97	;'a'
  4247  1806  3472               	retlw	114	;'r'
  4248  1807  3465               	retlw	101	;'e'
  4249  1808  3420               	retlw	32	;' '
  4250  1809  3466               	retlw	102	;'f'
  4251  180A  3461               	retlw	97	;'a'
  4252  180B  3469               	retlw	105	;'i'
  4253  180C  346C               	retlw	108	;'l'
  4254  180D  3400               	retlw	0
  4255                           
  4256                           	psect	stringtext17
  4257  180E                     __pstringtext17:
  4258  180E                     STR_1:
  4259  180E  3472               	retlw	114	;'r'
  4260  180F  3461               	retlw	97	;'a'
  4261  1810  346E               	retlw	110	;'n'
  4262  1811  3467               	retlw	103	;'g'
  4263  1812  3465               	retlw	101	;'e'
  4264  1813  3420               	retlw	32	;' '
  4265  1814  3476               	retlw	118	;'v'
  4266  1815  3461               	retlw	97	;'a'
  4267  1816  346C               	retlw	108	;'l'
  4268  1817  3469               	retlw	105	;'i'
  4269  1818  3464               	retlw	100	;'d'
  4270  1819  3400               	retlw	0
  4271                           
  4272                           	psect	stringtext18
  4273  181A                     __pstringtext18:
  4274  181A                     STR_2:
  4275  181A  3473               	retlw	115	;'s'
  4276  181B  3469               	retlw	105	;'i'
  4277  181C  3467               	retlw	103	;'g'
  4278  181D  346D               	retlw	109	;'m'
  4279  181E  3461               	retlw	97	;'a'
  4280  181F  3420               	retlw	32	;' '
  4281  1820  3466               	retlw	102	;'f'
  4282  1821  3461               	retlw	97	;'a'
  4283  1822  3469               	retlw	105	;'i'
  4284  1823  346C               	retlw	108	;'l'
  4285  1824  3400               	retlw	0
  4286                           
  4287                           	psect	stringtext19
  4288  1825                     __pstringtext19:
  4289  1825                     STR_12:
  4290  1825  346E               	retlw	110	;'n'
  4291  1826  346F               	retlw	111	;'o'
  4292  1827  3420               	retlw	32	;' '
  4293  1828  3475               	retlw	117	;'u'
  4294  1829  3470               	retlw	112	;'p'
  4295  182A  3464               	retlw	100	;'d'
  4296  182B  3461               	retlw	97	;'a'
  4297  182C  3474               	retlw	116	;'t'
  4298  182D  3465               	retlw	101	;'e'
  4299  182E  3400               	retlw	0
  4300                           
  4301                           	psect	stringtext20
  4302  0000                     __pstringtext20:
  4303  108C                     
  4304                           	psect	cinit
  4305  0017                     start_initialization:	
  4306                           ; #config settings
  4307                           
  4308  0017                     __initialization:
  4309                           
  4310                           ; Initialize objects allocated to BANK1
  4311  0017  0021               	movlb	1	; select bank1
  4312  0018  3197  271A  3180   	fcall	__pidataBANK1	;fetch initializer
  4313  001B  00DD               	movwf	__pdataBANK1& (0+127)
  4314  001C  3197  271B  3180   	fcall	__pidataBANK1+1	;fetch initializer
  4315  001F  00DE               	movwf	(__pdataBANK1+1)& (0+127)
  4316  0020  3197  271C  3180   	fcall	__pidataBANK1+2	;fetch initializer
  4317  0023  00DF               	movwf	(__pdataBANK1+2)& (0+127)
  4318  0024  3197  271D  3180   	fcall	__pidataBANK1+3	;fetch initializer
  4319  0027  00E0               	movwf	(__pdataBANK1+3)& (0+127)
  4320                           
  4321                           ; Clear objects allocated to COMMON
  4322  0028  01FB               	clrf	__pbssCOMMON& (0+127)
  4323                           
  4324                           ; Clear objects allocated to BANK1
  4325  0029  30A0               	movlw	low __pbssBANK1
  4326  002A  0084               	movwf	4
  4327  002B  3000               	movlw	high __pbssBANK1
  4328  002C  0085               	movwf	5
  4329  002D  3039               	movlw	57
  4330  002E  3197  2767  3180   	fcall	clear_ram0
  4331                           
  4332                           ; Clear objects allocated to BANK2
  4333  0031  3020               	movlw	low __pbssBANK2
  4334  0032  0084               	movwf	4
  4335  0033  3001               	movlw	high __pbssBANK2
  4336  0034  0085               	movwf	5
  4337  0035  301E               	movlw	30
  4338  0036  3197  2767  3180   	fcall	clear_ram0
  4339  0039                     end_of_initialization:	
  4340                           ;End of C runtime variable initialization code
  4341                           
  4342  0039                     __end_of__initialization:
  4343  0039  107E               	bcf	int$flags,0	;clear compiler interrupt flag (level 1)
  4344  003A  0020               	movlb	0
  4345  003B  318A  2A03         	ljmp	_main	;jump to C main() function
  4346                           
  4347                           	psect	bssCOMMON
  4348  007B                     __pbssCOMMON:
  4349  007B                     _saved_vhv_init:
  4350  007B                     	ds	1
  4351                           
  4352                           	psect	bssBANK1
  4353  00A0                     __pbssBANK1:
  4354  00A0                     _ranging_data:
  4355  00A0                     	ds	11
  4356  00AB                     _data:
  4357  00AB                     	ds	2
  4358  00AD                     _osc_calibrate_val:
  4359  00AD                     	ds	2
  4360  00AF                     _timeout_start_ms:
  4361  00AF                     	ds	2
  4362  00B1                     _io_timeout:
  4363  00B1                     	ds	2
  4364  00B3                     _LINE2:
  4365  00B3                     	ds	2
  4366  00B5                     _LINE1:
  4367  00B5                     	ds	2
  4368  00B7                     _CUR_DIST_TO_TARGET:
  4369  00B7                     	ds	2
  4370  00B9                     _CUR_DIST:
  4371  00B9                     	ds	2
  4372  00BB                     _SPEED:
  4373  00BB                     	ds	2
  4374  00BD                     _last_status:
  4375  00BD                     	ds	1
  4376  00BE                     _distance_mode:
  4377  00BE                     	ds	1
  4378  00BF                     _saved_vhv_timeout:
  4379  00BF                     	ds	1
  4380  00C0                     _calibrated:
  4381  00C0                     	ds	1
  4382  00C1                     _did_timeout:
  4383  00C1                     	ds	1
  4384  00C2                     _carstate:
  4385  00C2                     	ds	1
  4386  00C3                     _cled:
  4387  00C3                     	ds	1
  4388  00C4                     _subSW:
  4389  00C4                     	ds	1
  4390  00C5                     _mainSW:
  4391  00C5                     	ds	1
  4392  00C6                     _results:
  4393  00C6                     	ds	17
  4394  00D7                     _fast_osc_frequency:
  4395  00D7                     	ds	2
  4396                           
  4397                           	psect	dataBANK1
  4398  00DD                     __pdataBANK1:
  4399  00DD                     _ERROR_DIST:
  4400  00DD                     	ds	2
  4401  00DF                     _TARGET_DIST:
  4402  00DF                     	ds	2
  4403                           
  4404                           	psect	bssBANK2
  4405  0120                     __pbssBANK2:
  4406  0120                     _I2C1_Status:
  4407  0120                     	ds	30
  4408                           
  4409                           	psect	clrtext
  4410  1767                     clear_ram0:	
  4411                           ;	Called with FSR0 containing the base address, and
  4412                           ;	WREG with the size to clear
  4413                           
  4414  1767  0064               	clrwdt	;clear the watchdog before getting into this loop
  4415  1768                     clrloop0:
  4416  1768  0180               	clrf	0	;clear RAM location pointed to by FSR
  4417  1769  3101               	addfsr 0,1
  4418  176A  0B89               	decfsz	9,f	;Have we reached the end of clearing yet?
  4419  176B  2F68               	goto	clrloop0	;have we reached the end yet?
  4420  176C  3400               	retlw	0	;all done for this memory range, return
  4421                           
  4422                           	psect	cstackBANK1
  4423  00E1                     __pcstackBANK1:
  4424  00E1                     ??_VL53L1X_init:
  4425                           
  4426                           ; 1 bytes @ 0x0
  4427  00E1                     	ds	2
  4428  00E3                     ??_main:
  4429                           
  4430                           ; 1 bytes @ 0x2
  4431  00E3                     	ds	2
  4432                           
  4433                           	psect	cstackCOMMON
  4434  0070                     __pcstackCOMMON:
  4435  0070                     ?_PMD_Initialize:
  4436  0070                     ?_I2C1_Initialize:	
  4437                           ; 1 bytes @ 0x0
  4438                           
  4439  0070                     ?_PIN_MANAGER_Initialize:	
  4440                           ; 1 bytes @ 0x0
  4441                           
  4442  0070                     ?_OSCILLATOR_Initialize:	
  4443                           ; 1 bytes @ 0x0
  4444                           
  4445  0070                     ?_WDT_Initialize:	
  4446                           ; 1 bytes @ 0x0
  4447                           
  4448  0070                     ?_PWM6_Initialize:	
  4449                           ; 1 bytes @ 0x0
  4450                           
  4451  0070                     ?_TMR2_Initialize:	
  4452                           ; 1 bytes @ 0x0
  4453                           
  4454  0070                     ?_PWM5_Initialize:	
  4455                           ; 1 bytes @ 0x0
  4456                           
  4457  0070                     ?_IOCCF4_DefaultInterruptHandler:	
  4458                           ; 1 bytes @ 0x0
  4459                           
  4460  0070                     ?_IOCCF4_ISR:	
  4461                           ; 1 bytes @ 0x0
  4462                           
  4463  0070                     ?_m_control_switch_on:	
  4464                           ; 1 bytes @ 0x0
  4465                           
  4466  0070                     ??_m_control_switch_on:	
  4467                           ; 1 bytes @ 0x0
  4468                           
  4469  0070                     ?_VL53L1X_init:	
  4470                           ; 1 bytes @ 0x0
  4471                           
  4472  0070                     ?_m_control_init:	
  4473                           ; 1 bytes @ 0x0
  4474                           
  4475  0070                     ?_m_control_run:	
  4476                           ; 1 bytes @ 0x0
  4477                           
  4478  0070                     ?_VL53L1X_setDistanceMode:	
  4479                           ; 1 bytes @ 0x0
  4480                           
  4481  0070                     ?_VL53L1X_readResults:	
  4482                           ; 1 bytes @ 0x0
  4483                           
  4484  0070                     ?_VL53L1X_setupManualCalibration:	
  4485                           ; 1 bytes @ 0x0
  4486                           
  4487  0070                     ?_VL53L1X_getRangingData:	
  4488                           ; 1 bytes @ 0x0
  4489                           
  4490  0070                     ?_m_set_speed:	
  4491                           ; 1 bytes @ 0x0
  4492                           
  4493  0070                     ?_m_statecheck:	
  4494                           ; 1 bytes @ 0x0
  4495                           
  4496  0070                     ?_m_go_forward:	
  4497                           ; 1 bytes @ 0x0
  4498                           
  4499  0070                     ?_m_brake:	
  4500                           ; 1 bytes @ 0x0
  4501                           
  4502  0070                     ?_m_go_backward:	
  4503                           ; 1 bytes @ 0x0
  4504                           
  4505  0070                     ?_I2C1_DO_IDLE:	
  4506                           ; 1 bytes @ 0x0
  4507                           
  4508  0070                     ?_I2C1_DO_SEND_ADR_READ:	
  4509                           ; 1 bytes @ 0x0
  4510                           
  4511  0070                     ?_I2C1_DO_SEND_ADR_WRITE:	
  4512                           ; 1 bytes @ 0x0
  4513                           
  4514  0070                     ?_I2C1_DO_TX:	
  4515                           ; 1 bytes @ 0x0
  4516                           
  4517  0070                     ?_I2C1_DO_RX:	
  4518                           ; 1 bytes @ 0x0
  4519                           
  4520  0070                     ?_I2C1_DO_RCEN:	
  4521                           ; 1 bytes @ 0x0
  4522                           
  4523  0070                     ?_I2C1_DO_TX_EMPTY:	
  4524                           ; 1 bytes @ 0x0
  4525                           
  4526  0070                     ?_I2C1_DO_SEND_RESTART_READ:	
  4527                           ; 1 bytes @ 0x0
  4528                           
  4529  0070                     ?_I2C1_DO_SEND_RESTART_WRITE:	
  4530                           ; 1 bytes @ 0x0
  4531                           
  4532  0070                     ?_I2C1_DO_SEND_RESTART:	
  4533                           ; 1 bytes @ 0x0
  4534                           
  4535  0070                     ?_I2C1_DO_SEND_STOP:	
  4536                           ; 1 bytes @ 0x0
  4537                           
  4538  0070                     ?_I2C1_DO_RX_ACK:	
  4539                           ; 1 bytes @ 0x0
  4540                           
  4541  0070                     ?_I2C1_DO_RX_NACK_STOP:	
  4542                           ; 1 bytes @ 0x0
  4543                           
  4544  0070                     ?_I2C1_DO_RX_NACK_RESTART:	
  4545                           ; 1 bytes @ 0x0
  4546                           
  4547  0070                     ?_I2C1_DO_RESET:	
  4548                           ; 1 bytes @ 0x0
  4549                           
  4550  0070                     ?_I2C1_DO_ADDRESS_NACK:	
  4551                           ; 1 bytes @ 0x0
  4552                           
  4553  0070                     ?_I2C1_MasterClearIrq:	
  4554                           ; 1 bytes @ 0x0
  4555                           
  4556  0070                     ?_I2C1_MasterOpen:	
  4557                           ; 1 bytes @ 0x0
  4558                           
  4559  0070                     ?_I2C1_MasterDisableIrq:	
  4560                           ; 1 bytes @ 0x0
  4561                           
  4562  0070                     ?_I2C1_MasterClose:	
  4563                           ; 1 bytes @ 0x0
  4564                           
  4565  0070                     ?_I2C1_MasterStart:	
  4566                           ; 1 bytes @ 0x0
  4567                           
  4568  0070                     ?_I2C1_Poller:	
  4569                           ; 1 bytes @ 0x0
  4570                           
  4571  0070                     ?_I2C1_MasterWaitForEvent:	
  4572                           ; 1 bytes @ 0x0
  4573                           
  4574  0070                     ?_I2C1_MasterFsm:	
  4575                           ; 1 bytes @ 0x0
  4576                           
  4577  0070                     ?_I2C1_MasterIsNack:	
  4578                           ; 1 bytes @ 0x0
  4579                           
  4580  0070                     ?_I2C1_MasterSendTxData:	
  4581                           ; 1 bytes @ 0x0
  4582                           
  4583  0070                     ?_I2C1_MasterGetRxData:	
  4584                           ; 1 bytes @ 0x0
  4585                           
  4586  0070                     ?_I2C1_MasterSendAck:	
  4587                           ; 1 bytes @ 0x0
  4588                           
  4589  0070                     ?_I2C1_MasterStartRx:	
  4590                           ; 1 bytes @ 0x0
  4591                           
  4592  0070                     ?_I2C1_MasterSetIrq:	
  4593                           ; 1 bytes @ 0x0
  4594                           
  4595  0070                     ?_I2C1_MasterEnableRestart:	
  4596                           ; 1 bytes @ 0x0
  4597                           
  4598  0070                     ?_I2C1_MasterStop:	
  4599                           ; 1 bytes @ 0x0
  4600                           
  4601  0070                     ?_I2C1_MasterSendNack:	
  4602                           ; 1 bytes @ 0x0
  4603                           
  4604  0070                     ?_SYSTEM_Initialize:	
  4605                           ; 1 bytes @ 0x0
  4606                           
  4607  0070                     ?_PIN_MANAGER_IOC:	
  4608                           ; 1 bytes @ 0x0
  4609                           
  4610  0070                     ?_main:	
  4611                           ; 1 bytes @ 0x0
  4612                           
  4613  0070                     ?_I2C1_Open:	
  4614                           ; 1 bytes @ 0x0
  4615                           
  4616  0070                     ?_I2C1_Close:	
  4617                           ; 1 bytes @ 0x0
  4618                           
  4619  0070                     ?_I2C1_MasterOperation:	
  4620                           ; 1 bytes @ 0x0
  4621                           
  4622  0070                     ?_I2C1_MasterWrite:	
  4623                           ; 1 bytes @ 0x0
  4624                           
  4625  0070                     ?_INTERRUPT_InterruptManager:	
  4626                           ; 1 bytes @ 0x0
  4627                           
  4628                           
  4629                           ; 1 bytes @ 0x0
  4630  0070                     	ds	2
  4631  0072                     ??_PMD_Initialize:
  4632  0072                     ??_I2C1_Initialize:	
  4633                           ; 1 bytes @ 0x2
  4634                           
  4635  0072                     ??_OSCILLATOR_Initialize:	
  4636                           ; 1 bytes @ 0x2
  4637                           
  4638  0072                     ??_WDT_Initialize:	
  4639                           ; 1 bytes @ 0x2
  4640                           
  4641  0072                     ??_PWM6_Initialize:	
  4642                           ; 1 bytes @ 0x2
  4643                           
  4644  0072                     ??_TMR2_Initialize:	
  4645                           ; 1 bytes @ 0x2
  4646                           
  4647  0072                     ??_PWM5_Initialize:	
  4648                           ; 1 bytes @ 0x2
  4649                           
  4650  0072                     ?_IOCCF4_SetInterruptHandler:	
  4651                           ; 1 bytes @ 0x2
  4652                           
  4653  0072                     ??_IOCCF4_DefaultInterruptHandler:	
  4654                           ; 1 bytes @ 0x2
  4655                           
  4656  0072                     ??_IOCCF4_ISR:	
  4657                           ; 1 bytes @ 0x2
  4658                           
  4659  0072                     ?_PWM5_LoadDutyValue:	
  4660                           ; 1 bytes @ 0x2
  4661                           
  4662  0072                     ?_PWM6_LoadDutyValue:	
  4663                           ; 1 bytes @ 0x2
  4664                           
  4665  0072                     ??_I2C1_DO_IDLE:	
  4666                           ; 1 bytes @ 0x2
  4667                           
  4668  0072                     ??_I2C1_DO_SEND_ADR_READ:	
  4669                           ; 1 bytes @ 0x2
  4670                           
  4671  0072                     ??_I2C1_DO_RX:	
  4672                           ; 1 bytes @ 0x2
  4673                           
  4674  0072                     ??_I2C1_DO_RCEN:	
  4675                           ; 1 bytes @ 0x2
  4676                           
  4677  0072                     ??_I2C1_DO_TX_EMPTY:	
  4678                           ; 1 bytes @ 0x2
  4679                           
  4680  0072                     ??_I2C1_DO_SEND_RESTART_READ:	
  4681                           ; 1 bytes @ 0x2
  4682                           
  4683  0072                     ??_I2C1_DO_SEND_RESTART_WRITE:	
  4684                           ; 1 bytes @ 0x2
  4685                           
  4686  0072                     ??_I2C1_DO_SEND_RESTART:	
  4687                           ; 1 bytes @ 0x2
  4688                           
  4689  0072                     ??_I2C1_DO_SEND_STOP:	
  4690                           ; 1 bytes @ 0x2
  4691                           
  4692  0072                     ??_I2C1_DO_RX_ACK:	
  4693                           ; 1 bytes @ 0x2
  4694                           
  4695  0072                     ??_I2C1_DO_RX_NACK_STOP:	
  4696                           ; 1 bytes @ 0x2
  4697                           
  4698  0072                     ??_I2C1_DO_RX_NACK_RESTART:	
  4699                           ; 1 bytes @ 0x2
  4700                           
  4701  0072                     ??_I2C1_DO_RESET:	
